{
  "address": "0x8f9Ec4D70caFC6A57FdffcCd88A37Da12b968da1",
  "abi": [
    {
      "inputs": [
        {
          "internalType": "contract IWonderfulStaking",
          "name": "_staking",
          "type": "address"
        }
      ],
      "stateMutability": "nonpayable",
      "type": "constructor"
    },
    {
      "anonymous": false,
      "inputs": [
        {
          "indexed": true,
          "internalType": "address",
          "name": "_requester",
          "type": "address"
        },
        {
          "indexed": false,
          "internalType": "uint256",
          "name": "_amount",
          "type": "uint256"
        }
      ],
      "name": "FundRequested",
      "type": "event"
    },
    {
      "anonymous": false,
      "inputs": [
        {
          "indexed": true,
          "internalType": "address",
          "name": "previousOwner",
          "type": "address"
        },
        {
          "indexed": true,
          "internalType": "address",
          "name": "newOwner",
          "type": "address"
        }
      ],
      "name": "OwnershipTransferred",
      "type": "event"
    },
    {
      "anonymous": false,
      "inputs": [
        {
          "indexed": true,
          "internalType": "address",
          "name": "_strategy",
          "type": "address"
        }
      ],
      "name": "StrategyAdded",
      "type": "event"
    },
    {
      "anonymous": false,
      "inputs": [
        {
          "indexed": true,
          "internalType": "address",
          "name": "_strategy",
          "type": "address"
        }
      ],
      "name": "StrategyRemoved",
      "type": "event"
    },
    {
      "anonymous": false,
      "inputs": [
        {
          "indexed": true,
          "internalType": "address",
          "name": "_token",
          "type": "address"
        },
        {
          "indexed": false,
          "internalType": "uint256",
          "name": "_amount",
          "type": "uint256"
        }
      ],
      "name": "TokenRewardAllocated",
      "type": "event"
    },
    {
      "inputs": [
        {
          "internalType": "address",
          "name": "_strategy",
          "type": "address"
        }
      ],
      "name": "addStrategy",
      "outputs": [],
      "stateMutability": "nonpayable",
      "type": "function"
    },
    {
      "inputs": [
        {
          "internalType": "address",
          "name": "_token",
          "type": "address"
        },
        {
          "internalType": "uint256",
          "name": "_amount",
          "type": "uint256"
        }
      ],
      "name": "allocateFee",
      "outputs": [],
      "stateMutability": "nonpayable",
      "type": "function"
    },
    {
      "inputs": [
        {
          "internalType": "address",
          "name": "_token",
          "type": "address"
        }
      ],
      "name": "balanceOf",
      "outputs": [
        {
          "internalType": "uint256",
          "name": "",
          "type": "uint256"
        }
      ],
      "stateMutability": "view",
      "type": "function"
    },
    {
      "inputs": [],
      "name": "owner",
      "outputs": [
        {
          "internalType": "address",
          "name": "",
          "type": "address"
        }
      ],
      "stateMutability": "view",
      "type": "function"
    },
    {
      "inputs": [
        {
          "internalType": "address",
          "name": "_strategy",
          "type": "address"
        }
      ],
      "name": "removeStrategy",
      "outputs": [],
      "stateMutability": "nonpayable",
      "type": "function"
    },
    {
      "inputs": [],
      "name": "renounceOwnership",
      "outputs": [],
      "stateMutability": "nonpayable",
      "type": "function"
    },
    {
      "inputs": [
        {
          "internalType": "address",
          "name": "_token",
          "type": "address"
        },
        {
          "internalType": "uint256",
          "name": "_amount",
          "type": "uint256"
        }
      ],
      "name": "requestFund",
      "outputs": [],
      "stateMutability": "nonpayable",
      "type": "function"
    },
    {
      "inputs": [],
      "name": "staking",
      "outputs": [
        {
          "internalType": "contract IWonderfulStaking",
          "name": "",
          "type": "address"
        }
      ],
      "stateMutability": "view",
      "type": "function"
    },
    {
      "inputs": [
        {
          "internalType": "address",
          "name": "",
          "type": "address"
        }
      ],
      "name": "strategies",
      "outputs": [
        {
          "internalType": "bool",
          "name": "",
          "type": "bool"
        }
      ],
      "stateMutability": "view",
      "type": "function"
    },
    {
      "inputs": [
        {
          "internalType": "uint256",
          "name": "",
          "type": "uint256"
        }
      ],
      "name": "strategiesArray",
      "outputs": [
        {
          "internalType": "address",
          "name": "",
          "type": "address"
        }
      ],
      "stateMutability": "view",
      "type": "function"
    },
    {
      "inputs": [
        {
          "internalType": "address",
          "name": "newOwner",
          "type": "address"
        }
      ],
      "name": "transferOwnership",
      "outputs": [],
      "stateMutability": "nonpayable",
      "type": "function"
    }
  ],
  "transactionHash": "0x7710d3f62797b31a56f618dd8b8f068bdc2a54fa27bc2ed9d5e1cd239c5ba1d7",
  "args": [
    "0x564DdF4206994FA0Ad0d11947095cA3dfcb905e2"
  ],
  "numDeployments": 1,
  "solcInputHash": "0f37fbee7d56cb39e34800a787a815e9",
  "bytecode": "0x608060405234801561001057600080fd5b50604051610fb4380380610fb483398101604081905261002f916100ad565b6100383361005d565b600380546001600160a01b0319166001600160a01b03929092169190911790556100db565b600080546001600160a01b038381166001600160a01b0319831681178455604051919092169283917f8be0079c531659141344cd1fd0a4f28419497f9722a3daafe3b4186f6b6457e09190a35050565b6000602082840312156100be578081fd5b81516001600160a01b03811681146100d4578182fd5b9392505050565b610eca806100ea6000396000f3fe608060405234801561001057600080fd5b50600436106100a95760003560e01c806370a082311161007157806370a082311461014c578063715018a61461016d5780638da5cb5b14610175578063ab1e912214610186578063b474512514610199578063f2fde38b146101ac57600080fd5b8063175188e8146100ae578063223e5479146100c357806339ebf823146100d65780634cf088d91461010e5780635963e2ad14610139575b600080fd5b6100c16100bc366004610d36565b6101bf565b005b6100c16100d1366004610d36565b610363565b6100f96100e4366004610d36565b60016020526000908152604090205460ff1681565b60405190151581526020015b60405180910390f35b600354610121906001600160a01b031681565b6040516001600160a01b039091168152602001610105565b6100c1610147366004610d57565b6104f4565b61015f61015a366004610d36565b6106a1565b604051908152602001610105565b6100c1610721565b6000546001600160a01b0316610121565b610121610194366004610da0565b610735565b6100c16101a7366004610d57565b61075f565b6100c16101ba366004610d36565b6108aa565b6101c7610923565b6001600160a01b03811660009081526001602052604090205460ff166102525760405162461bcd60e51b815260206004820152603560248201527f576f6e64657266756c54726561737572793a3a72656d6f7665537472617465676044820152741e4e881cdd1c985d1959de481b9bdd08199bdd5b99605a1b60648201526084015b60405180910390fd5b6001600160a01b0381166000908152600160205260408120805460ff191690555b60025481101561032b57816001600160a01b0316600282815481106102a857634e487b7160e01b600052603260045260246000fd5b6000918252602090912001546001600160a01b03161415610319576000600282815481106102e657634e487b7160e01b600052603260045260246000fd5b9060005260206000200160006101000a8154816001600160a01b0302191690836001600160a01b0316021790555061032b565b8061032381610e63565b915050610273565b506040516001600160a01b038216907f09a1db4b80c32706328728508c941a6b954f31eb5affd32f236c1fd405f8fea490600090a250565b61036b610923565b6001600160a01b0381166103d95760405162461bcd60e51b815260206004820152602f60248201527f576f6e64657266756c54726561737572793a3a61646453747261746567793a2060448201526e696e76616c6964206164647265737360881b6064820152608401610249565b6001600160a01b03811660009081526001602052604090205460ff16156104685760405162461bcd60e51b815260206004820152603d60248201527f576f6e64657266756c54726561737572793a3a61646453747261746567793a2060448201527f7374726174656779207761732070726576696f75736c792061646465640000006064820152608401610249565b6001600160a01b0381166000818152600160208190526040808320805460ff19168317905560028054928301815583527f405787fa12a823e0f2b7631cc41b3ba8828b3321ca811111fa75cd3aa3bb5ace90910180546001600160a01b03191684179055517f3f008fd510eae7a9e7bee13513d7b83bef8003d488b5a3d0b0da4de71d6846f19190a250565b6104fc610923565b6003546001600160a01b03166105735760405162461bcd60e51b815260206004820152603660248201527f576f6e64657266756c54726561737572793a3a616c6c6f636174654665653a46604482015275195948191a5cdd1c9a589d5d1bdc881b9bdd081cd95d60521b6064820152608401610249565b600081116105da5760405162461bcd60e51b815260206004820152602e60248201527f576f6e64657266756c54726561737572793a3a616c6c6f636174654665653a2060448201526d1a5b9d985b1a5908185b5bdd5b9d60921b6064820152608401610249565b6003546105f4906001600160a01b0384811691168361097d565b60035460405163b66503cf60e01b81526001600160a01b038481166004830152602482018490529091169063b66503cf90604401600060405180830381600087803b15801561064257600080fd5b505af1158015610656573d6000803e3d6000fd5b50505050816001600160a01b03167f6d2dbeb83c612f93fc06a5a8d74ebf64946ae126076c60c7f3b69c05ecdbd3a48260405161069591815260200190565b60405180910390a25050565b6040516370a0823160e01b81523060048201526000906001600160a01b038316906370a082319060240160206040518083038186803b1580156106e357600080fd5b505afa1580156106f7573d6000803e3d6000fd5b505050506040513d601f19601f8201168201806040525081019061071b9190610db8565b92915050565b610729610923565b6107336000610a66565b565b6002818154811061074557600080fd5b6000918252602090912001546001600160a01b0316905081565b3360009081526001602052604090205460ff166107e6576040805162461bcd60e51b81526020600482015260248101919091527f576f6e64657266756c54726561737572793a3a7265717565737446756e643a2060448201527f4f6e6c7920737472617465676965732063616e20726571756573742066756e646064820152608401610249565b6107ef826106a1565b8111156108645760405162461bcd60e51b815260206004820152603e60248201527f576f6e64657266756c54726561737572793a3a7265717565737446756e643a2060448201527f52657175657374206d6f72652066756e64207468616e2062616c616e636500006064820152608401610249565b6108786001600160a01b038316338361097d565b60405181815233907fc01885824d09db2a2cad0d38d82321fdb9026a98b421d8ffdacb61e52310750d90602001610695565b6108b2610923565b6001600160a01b0381166109175760405162461bcd60e51b815260206004820152602660248201527f4f776e61626c653a206e6577206f776e657220697320746865207a65726f206160448201526564647265737360d01b6064820152608401610249565b61092081610a66565b50565b6000546001600160a01b031633146107335760405162461bcd60e51b815260206004820181905260248201527f4f776e61626c653a2063616c6c6572206973206e6f7420746865206f776e65726044820152606401610249565b604051636eb1769f60e11b81523060048201526001600160a01b038381166024830152600091839186169063dd62ed3e9060440160206040518083038186803b1580156109c957600080fd5b505afa1580156109dd573d6000803e3d6000fd5b505050506040513d601f19601f82011682018060405250810190610a019190610db8565b610a0b9190610e1f565b604080516001600160a01b038616602482015260448082018490528251808303909101815260649091019091526020810180516001600160e01b031663095ea7b360e01b179052909150610a60908590610ab6565b50505050565b600080546001600160a01b038381166001600160a01b0319831681178455604051919092169283917f8be0079c531659141344cd1fd0a4f28419497f9722a3daafe3b4186f6b6457e09190a35050565b6000610b0b826040518060400160405280602081526020017f5361666545524332303a206c6f772d6c6576656c2063616c6c206661696c6564815250856001600160a01b0316610b8d9092919063ffffffff16565b805190915015610b885780806020019051810190610b299190610d80565b610b885760405162461bcd60e51b815260206004820152602a60248201527f5361666545524332303a204552433230206f7065726174696f6e20646964206e6044820152691bdd081cdd58d8d9595960b21b6064820152608401610249565b505050565b6060610b9c8484600085610ba4565b949350505050565b606082471015610c055760405162461bcd60e51b815260206004820152602660248201527f416464726573733a20696e73756666696369656e742062616c616e636520666f6044820152651c8818d85b1b60d21b6064820152608401610249565b600080866001600160a01b03168587604051610c219190610dd0565b60006040518083038185875af1925050503d8060008114610c5e576040519150601f19603f3d011682016040523d82523d6000602084013e610c63565b606091505b5091509150610c7487838387610c7f565b979650505050505050565b60608315610ceb578251610ce4576001600160a01b0385163b610ce45760405162461bcd60e51b815260206004820152601d60248201527f416464726573733a2063616c6c20746f206e6f6e2d636f6e74726163740000006044820152606401610249565b5081610b9c565b610b9c8383815115610d005781518083602001fd5b8060405162461bcd60e51b81526004016102499190610dec565b80356001600160a01b0381168114610d3157600080fd5b919050565b600060208284031215610d47578081fd5b610d5082610d1a565b9392505050565b60008060408385031215610d69578081fd5b610d7283610d1a565b946020939093013593505050565b600060208284031215610d91578081fd5b81518015158114610d50578182fd5b600060208284031215610db1578081fd5b5035919050565b600060208284031215610dc9578081fd5b5051919050565b60008251610de2818460208701610e37565b9190910192915050565b6020815260008251806020840152610e0b816040850160208701610e37565b601f01601f19169190910160400192915050565b60008219821115610e3257610e32610e7e565b500190565b60005b83811015610e52578181015183820152602001610e3a565b83811115610a605750506000910152565b6000600019821415610e7757610e77610e7e565b5060010190565b634e487b7160e01b600052601160045260246000fdfea26469706673582212208693d05e1f386cd38eefbbf7cb96d48cb351569e764f5d46907f6e7263e78a2364736f6c63430008040033",
  "devdoc": {
    "kind": "dev",
    "methods": {
      "addStrategy(address)": {
        "params": {
          "_strategy": "Address of the strategy contract"
        }
      },
      "allocateFee(address,uint256)": {
        "params": {
          "_amount": "Amount of fee will be distributed",
          "_token": "Address of ERC-20 token"
        }
      },
      "balanceOf(address)": {
        "params": {
          "_token": "Address of the ERC-20 token"
        },
        "returns": {
          "_0": "Balance of the WonderfulTreasury"
        }
      },
      "owner()": {
        "details": "Returns the address of the current owner."
      },
      "removeStrategy(address)": {
        "params": {
          "_strategy": "Address of the strategy contract"
        }
      },
      "renounceOwnership()": {
        "details": "Leaves the contract without owner. It will not be possible to call `onlyOwner` functions anymore. Can only be called by the current owner. NOTE: Renouncing ownership will leave the contract without an owner, thereby removing any functionality that is only available to the owner."
      },
      "requestFund(address,uint256)": {
        "params": {
          "_amount": "The requested amount",
          "_token": "Address of the ERC-20 token"
        }
      },
      "transferOwnership(address)": {
        "details": "Transfers ownership of the contract to a new account (`newOwner`). Can only be called by the current owner."
      }
    },
    "version": 1
  },
  "userdoc": {
    "kind": "user",
    "methods": {
      "addStrategy(address)": {
        "notice": "Add new strategy"
      },
      "allocateFee(address,uint256)": {
        "notice": "Allocate protocol's fee to stakers"
      },
      "balanceOf(address)": {
        "notice": "Return ERC-20 balance of WonderfulTreasury"
      },
      "removeStrategy(address)": {
        "notice": "Remove current strategy"
      },
      "requestFund(address,uint256)": {
        "notice": "Request fund from Reserve - only can be called from whitelisted strategies"
      }
    },
    "version": 1
  },
  "storageLayout": {
    "storage": [
      {
        "astId": 7,
        "contract": "contracts/treasury/WonderfulTreasury.sol:WonderfulTreasury",
        "label": "_owner",
        "offset": 0,
        "slot": "0",
        "type": "t_address"
      },
      {
        "astId": 12923,
        "contract": "contracts/treasury/WonderfulTreasury.sol:WonderfulTreasury",
        "label": "strategies",
        "offset": 0,
        "slot": "1",
        "type": "t_mapping(t_address,t_bool)"
      },
      {
        "astId": 12926,
        "contract": "contracts/treasury/WonderfulTreasury.sol:WonderfulTreasury",
        "label": "strategiesArray",
        "offset": 0,
        "slot": "2",
        "type": "t_array(t_address)dyn_storage"
      },
      {
        "astId": 12929,
        "contract": "contracts/treasury/WonderfulTreasury.sol:WonderfulTreasury",
        "label": "staking",
        "offset": 0,
        "slot": "3",
        "type": "t_contract(IWonderfulStaking)10049"
      }
    ],
    "types": {
      "t_address": {
        "encoding": "inplace",
        "label": "address",
        "numberOfBytes": "20"
      },
      "t_array(t_address)dyn_storage": {
        "base": "t_address",
        "encoding": "dynamic_array",
        "label": "address[]",
        "numberOfBytes": "32"
      },
      "t_bool": {
        "encoding": "inplace",
        "label": "bool",
        "numberOfBytes": "1"
      },
      "t_contract(IWonderfulStaking)10049": {
        "encoding": "inplace",
        "label": "contract IWonderfulStaking",
        "numberOfBytes": "20"
      },
      "t_mapping(t_address,t_bool)": {
        "encoding": "mapping",
        "key": "t_address",
        "label": "mapping(address => bool)",
        "numberOfBytes": "32",
        "value": "t_bool"
      }
    }
  }
}