{
  "address": "0x564DdF4206994FA0Ad0d11947095cA3dfcb905e2",
  "abi": [
    {
      "inputs": [
        {
          "internalType": "address",
          "name": "_stakingToken",
          "type": "address"
        },
        {
          "internalType": "address",
          "name": "_stakingTokenReserve",
          "type": "address"
        },
        {
          "internalType": "address[]",
          "name": "_minters",
          "type": "address[]"
        }
      ],
      "stateMutability": "nonpayable",
      "type": "constructor"
    },
    {
      "anonymous": false,
      "inputs": [
        {
          "indexed": true,
          "internalType": "address",
          "name": "previousOwner",
          "type": "address"
        },
        {
          "indexed": true,
          "internalType": "address",
          "name": "newOwner",
          "type": "address"
        }
      ],
      "name": "OwnershipTransferred",
      "type": "event"
    },
    {
      "anonymous": false,
      "inputs": [
        {
          "indexed": false,
          "internalType": "address",
          "name": "token",
          "type": "address"
        },
        {
          "indexed": false,
          "internalType": "uint256",
          "name": "amount",
          "type": "uint256"
        }
      ],
      "name": "Recovered",
      "type": "event"
    },
    {
      "anonymous": false,
      "inputs": [
        {
          "indexed": false,
          "internalType": "uint256",
          "name": "reward",
          "type": "uint256"
        }
      ],
      "name": "RewardAdded",
      "type": "event"
    },
    {
      "anonymous": false,
      "inputs": [
        {
          "indexed": true,
          "internalType": "address",
          "name": "rewardAddress",
          "type": "address"
        },
        {
          "indexed": true,
          "internalType": "address",
          "name": "distributor",
          "type": "address"
        },
        {
          "indexed": false,
          "internalType": "bool",
          "name": "approved",
          "type": "bool"
        }
      ],
      "name": "RewardDistributorApproved",
      "type": "event"
    },
    {
      "anonymous": false,
      "inputs": [
        {
          "indexed": true,
          "internalType": "address",
          "name": "user",
          "type": "address"
        },
        {
          "indexed": true,
          "internalType": "address",
          "name": "rewardsToken",
          "type": "address"
        },
        {
          "indexed": false,
          "internalType": "uint256",
          "name": "reward",
          "type": "uint256"
        }
      ],
      "name": "RewardPaid",
      "type": "event"
    },
    {
      "anonymous": false,
      "inputs": [
        {
          "indexed": true,
          "internalType": "address",
          "name": "rewardTokenAddress",
          "type": "address"
        }
      ],
      "name": "RewardTokenAdded",
      "type": "event"
    },
    {
      "anonymous": false,
      "inputs": [
        {
          "indexed": true,
          "internalType": "address",
          "name": "user",
          "type": "address"
        },
        {
          "indexed": false,
          "internalType": "uint256",
          "name": "amount",
          "type": "uint256"
        }
      ],
      "name": "Staked",
      "type": "event"
    },
    {
      "anonymous": false,
      "inputs": [
        {
          "indexed": true,
          "internalType": "address",
          "name": "user",
          "type": "address"
        },
        {
          "indexed": false,
          "internalType": "uint256",
          "name": "amount",
          "type": "uint256"
        }
      ],
      "name": "Withdrawn",
      "type": "event"
    },
    {
      "inputs": [
        {
          "internalType": "address",
          "name": "_rewardsToken",
          "type": "address"
        },
        {
          "internalType": "address",
          "name": "_distributor",
          "type": "address"
        }
      ],
      "name": "addReward",
      "outputs": [],
      "stateMutability": "nonpayable",
      "type": "function"
    },
    {
      "inputs": [
        {
          "internalType": "address",
          "name": "_rewardsToken",
          "type": "address"
        },
        {
          "internalType": "address",
          "name": "_distributor",
          "type": "address"
        },
        {
          "internalType": "bool",
          "name": "_approved",
          "type": "bool"
        }
      ],
      "name": "approveRewardDistributor",
      "outputs": [],
      "stateMutability": "nonpayable",
      "type": "function"
    },
    {
      "inputs": [
        {
          "internalType": "address",
          "name": "account",
          "type": "address"
        }
      ],
      "name": "claimableRewards",
      "outputs": [
        {
          "components": [
            {
              "internalType": "address",
              "name": "token",
              "type": "address"
            },
            {
              "internalType": "uint256",
              "name": "amount",
              "type": "uint256"
            }
          ],
          "internalType": "struct WonderfulStaking.RewardData[]",
          "name": "_rewards",
          "type": "tuple[]"
        }
      ],
      "stateMutability": "view",
      "type": "function"
    },
    {
      "inputs": [
        {
          "internalType": "address",
          "name": "user",
          "type": "address"
        }
      ],
      "name": "earnedBalances",
      "outputs": [
        {
          "internalType": "uint256",
          "name": "total",
          "type": "uint256"
        },
        {
          "components": [
            {
              "internalType": "uint256",
              "name": "amount",
              "type": "uint256"
            },
            {
              "internalType": "uint256",
              "name": "unlockTime",
              "type": "uint256"
            }
          ],
          "internalType": "struct WonderfulStaking.LockedBalance[]",
          "name": "earningsData",
          "type": "tuple[]"
        }
      ],
      "stateMutability": "view",
      "type": "function"
    },
    {
      "inputs": [],
      "name": "emergencyWithdraw",
      "outputs": [],
      "stateMutability": "nonpayable",
      "type": "function"
    },
    {
      "inputs": [],
      "name": "getReward",
      "outputs": [],
      "stateMutability": "nonpayable",
      "type": "function"
    },
    {
      "inputs": [
        {
          "internalType": "address",
          "name": "_rewardsToken",
          "type": "address"
        }
      ],
      "name": "getRewardForDuration",
      "outputs": [
        {
          "internalType": "uint256",
          "name": "",
          "type": "uint256"
        }
      ],
      "stateMutability": "view",
      "type": "function"
    },
    {
      "inputs": [
        {
          "internalType": "address",
          "name": "_rewardsToken",
          "type": "address"
        }
      ],
      "name": "lastTimeRewardApplicable",
      "outputs": [
        {
          "internalType": "uint256",
          "name": "",
          "type": "uint256"
        }
      ],
      "stateMutability": "view",
      "type": "function"
    },
    {
      "inputs": [],
      "name": "lockDuration",
      "outputs": [
        {
          "internalType": "uint256",
          "name": "",
          "type": "uint256"
        }
      ],
      "stateMutability": "view",
      "type": "function"
    },
    {
      "inputs": [
        {
          "internalType": "address",
          "name": "user",
          "type": "address"
        }
      ],
      "name": "lockedBalances",
      "outputs": [
        {
          "internalType": "uint256",
          "name": "total",
          "type": "uint256"
        },
        {
          "internalType": "uint256",
          "name": "unlockable",
          "type": "uint256"
        },
        {
          "internalType": "uint256",
          "name": "locked",
          "type": "uint256"
        },
        {
          "components": [
            {
              "internalType": "uint256",
              "name": "amount",
              "type": "uint256"
            },
            {
              "internalType": "uint256",
              "name": "unlockTime",
              "type": "uint256"
            }
          ],
          "internalType": "struct WonderfulStaking.LockedBalance[]",
          "name": "lockData",
          "type": "tuple[]"
        }
      ],
      "stateMutability": "view",
      "type": "function"
    },
    {
      "inputs": [],
      "name": "lockedSupply",
      "outputs": [
        {
          "internalType": "uint256",
          "name": "",
          "type": "uint256"
        }
      ],
      "stateMutability": "view",
      "type": "function"
    },
    {
      "inputs": [
        {
          "internalType": "address",
          "name": "user",
          "type": "address"
        },
        {
          "internalType": "uint256",
          "name": "amount",
          "type": "uint256"
        }
      ],
      "name": "mint",
      "outputs": [],
      "stateMutability": "nonpayable",
      "type": "function"
    },
    {
      "inputs": [
        {
          "internalType": "address",
          "name": "",
          "type": "address"
        }
      ],
      "name": "minters",
      "outputs": [
        {
          "internalType": "bool",
          "name": "",
          "type": "bool"
        }
      ],
      "stateMutability": "view",
      "type": "function"
    },
    {
      "inputs": [
        {
          "internalType": "uint256",
          "name": "",
          "type": "uint256"
        }
      ],
      "name": "mintersArray",
      "outputs": [
        {
          "internalType": "address",
          "name": "",
          "type": "address"
        }
      ],
      "stateMutability": "view",
      "type": "function"
    },
    {
      "inputs": [
        {
          "internalType": "address",
          "name": "_rewardsToken",
          "type": "address"
        },
        {
          "internalType": "uint256",
          "name": "reward",
          "type": "uint256"
        }
      ],
      "name": "notifyRewardAmount",
      "outputs": [],
      "stateMutability": "nonpayable",
      "type": "function"
    },
    {
      "inputs": [],
      "name": "owner",
      "outputs": [
        {
          "internalType": "address",
          "name": "",
          "type": "address"
        }
      ],
      "stateMutability": "view",
      "type": "function"
    },
    {
      "inputs": [
        {
          "internalType": "address",
          "name": "tokenAddress",
          "type": "address"
        },
        {
          "internalType": "uint256",
          "name": "tokenAmount",
          "type": "uint256"
        }
      ],
      "name": "recoverERC20",
      "outputs": [],
      "stateMutability": "nonpayable",
      "type": "function"
    },
    {
      "inputs": [],
      "name": "renounceOwnership",
      "outputs": [],
      "stateMutability": "nonpayable",
      "type": "function"
    },
    {
      "inputs": [
        {
          "internalType": "address",
          "name": "",
          "type": "address"
        }
      ],
      "name": "rewardData",
      "outputs": [
        {
          "internalType": "uint256",
          "name": "periodFinish",
          "type": "uint256"
        },
        {
          "internalType": "uint256",
          "name": "rewardRate",
          "type": "uint256"
        },
        {
          "internalType": "uint256",
          "name": "lastUpdateTime",
          "type": "uint256"
        },
        {
          "internalType": "uint256",
          "name": "rewardPerTokenStored",
          "type": "uint256"
        }
      ],
      "stateMutability": "view",
      "type": "function"
    },
    {
      "inputs": [
        {
          "internalType": "address",
          "name": "",
          "type": "address"
        },
        {
          "internalType": "address",
          "name": "",
          "type": "address"
        }
      ],
      "name": "rewardDistributors",
      "outputs": [
        {
          "internalType": "bool",
          "name": "",
          "type": "bool"
        }
      ],
      "stateMutability": "view",
      "type": "function"
    },
    {
      "inputs": [
        {
          "internalType": "address",
          "name": "_rewardsToken",
          "type": "address"
        }
      ],
      "name": "rewardPerToken",
      "outputs": [
        {
          "internalType": "uint256",
          "name": "",
          "type": "uint256"
        }
      ],
      "stateMutability": "view",
      "type": "function"
    },
    {
      "inputs": [
        {
          "internalType": "uint256",
          "name": "",
          "type": "uint256"
        }
      ],
      "name": "rewardTokens",
      "outputs": [
        {
          "internalType": "address",
          "name": "",
          "type": "address"
        }
      ],
      "stateMutability": "view",
      "type": "function"
    },
    {
      "inputs": [
        {
          "internalType": "address",
          "name": "",
          "type": "address"
        },
        {
          "internalType": "address",
          "name": "",
          "type": "address"
        }
      ],
      "name": "rewards",
      "outputs": [
        {
          "internalType": "uint256",
          "name": "",
          "type": "uint256"
        }
      ],
      "stateMutability": "view",
      "type": "function"
    },
    {
      "inputs": [],
      "name": "rewardsDuration",
      "outputs": [
        {
          "internalType": "uint256",
          "name": "",
          "type": "uint256"
        }
      ],
      "stateMutability": "view",
      "type": "function"
    },
    {
      "inputs": [
        {
          "internalType": "uint256",
          "name": "amount",
          "type": "uint256"
        },
        {
          "internalType": "bool",
          "name": "lock",
          "type": "bool"
        }
      ],
      "name": "stake",
      "outputs": [],
      "stateMutability": "nonpayable",
      "type": "function"
    },
    {
      "inputs": [],
      "name": "stakingToken",
      "outputs": [
        {
          "internalType": "contract IYToken",
          "name": "",
          "type": "address"
        }
      ],
      "stateMutability": "view",
      "type": "function"
    },
    {
      "inputs": [],
      "name": "stakingTokenReserve",
      "outputs": [
        {
          "internalType": "contract IYTokenReserve",
          "name": "",
          "type": "address"
        }
      ],
      "stateMutability": "view",
      "type": "function"
    },
    {
      "inputs": [
        {
          "internalType": "address",
          "name": "user",
          "type": "address"
        }
      ],
      "name": "totalBalance",
      "outputs": [
        {
          "internalType": "uint256",
          "name": "amount",
          "type": "uint256"
        }
      ],
      "stateMutability": "view",
      "type": "function"
    },
    {
      "inputs": [],
      "name": "totalSupply",
      "outputs": [
        {
          "internalType": "uint256",
          "name": "",
          "type": "uint256"
        }
      ],
      "stateMutability": "view",
      "type": "function"
    },
    {
      "inputs": [
        {
          "internalType": "address",
          "name": "newOwner",
          "type": "address"
        }
      ],
      "name": "transferOwnership",
      "outputs": [],
      "stateMutability": "nonpayable",
      "type": "function"
    },
    {
      "inputs": [
        {
          "internalType": "address",
          "name": "user",
          "type": "address"
        }
      ],
      "name": "unlockedBalance",
      "outputs": [
        {
          "internalType": "uint256",
          "name": "amount",
          "type": "uint256"
        }
      ],
      "stateMutability": "view",
      "type": "function"
    },
    {
      "inputs": [
        {
          "internalType": "address",
          "name": "",
          "type": "address"
        },
        {
          "internalType": "address",
          "name": "",
          "type": "address"
        }
      ],
      "name": "userRewardPerTokenPaid",
      "outputs": [
        {
          "internalType": "uint256",
          "name": "",
          "type": "uint256"
        }
      ],
      "stateMutability": "view",
      "type": "function"
    },
    {
      "inputs": [
        {
          "internalType": "uint256",
          "name": "amount",
          "type": "uint256"
        }
      ],
      "name": "withdraw",
      "outputs": [],
      "stateMutability": "nonpayable",
      "type": "function"
    },
    {
      "inputs": [],
      "name": "withdrawExpiredLocks",
      "outputs": [],
      "stateMutability": "nonpayable",
      "type": "function"
    },
    {
      "inputs": [
        {
          "internalType": "address",
          "name": "user",
          "type": "address"
        }
      ],
      "name": "withdrawableBalance",
      "outputs": [
        {
          "internalType": "uint256",
          "name": "amount",
          "type": "uint256"
        },
        {
          "internalType": "uint256",
          "name": "penaltyAmount",
          "type": "uint256"
        }
      ],
      "stateMutability": "view",
      "type": "function"
    },
    {
      "stateMutability": "payable",
      "type": "receive"
    }
  ],
  "transactionHash": "0x7d27b51c64da1f210ef1156a2df284a2d80044b0ecc8410e8fdc90d9647ad868",
  "args": [
    "0x42972EdecD94BDD19A622A6a419bDDed2de56E08",
    "0xbb2906b75067dE190bEF3E3a26e1c142df96AE1c",
    [
      "0x952470bfA5326A31301396dF9c05ea774685562a"
    ]
  ],
  "numDeployments": 1,
  "solcInputHash": "0f37fbee7d56cb39e34800a787a815e9",
  "bytecode": "0x60806040523480156200001157600080fd5b5060405162003e7338038062003e738339810160408190526200003491620002a5565b6001600055620000443362000236565b600280546001600160a01b038581166001600160a01b031992831617909255600380549285169290911682179055604051630e9918b960e21b8152306004820152633a6462e490602401602060405180830381600087803b158015620000a957600080fd5b505af1158015620000be573d6000803e3d6000fd5b505050506040513d601f19601f82011682018060405250810190620000e49190620003a1565b5060005b8151811015620001cb576001600660008484815181106200011957634e487b7160e01b600052603260045260246000fd5b60200260200101516001600160a01b03166001600160a01b0316815260200190815260200160002060006101000a81548160ff02191690831515021790555060078282815181106200017b57634e487b7160e01b600052603260045260246000fd5b60209081029190910181015182546001810184556000938452919092200180546001600160a01b0319166001600160a01b0390921691909117905580620001c281620003ca565b915050620000e8565b505060048054600181019091557f8a35acfbc15ff81a39ae7d344fd709f28e8600b4aa8c65c6b64bfe7fe36bd19b0180546001600160a01b039093166001600160a01b0319909316831790555060009081526005602052604090204260028201819055905562000408565b600180546001600160a01b038381166001600160a01b0319831681179093556040519116919082907f8be0079c531659141344cd1fd0a4f28419497f9722a3daafe3b4186f6b6457e090600090a35050565b80516001600160a01b0381168114620002a057600080fd5b919050565b600080600060608486031215620002ba578283fd5b620002c58462000288565b92506020620002d681860162000288565b60408601519093506001600160401b0380821115620002f3578384fd5b818701915087601f83011262000307578384fd5b8151818111156200031c576200031c620003f2565b8060051b604051601f19603f83011681018181108582111715620003445762000344620003f2565b604052828152858101935084860182860187018c101562000363578788fd5b8795505b8386101562000390576200037b8162000288565b85526001959095019493860193860162000367565b508096505050505050509250925092565b600060208284031215620003b3578081fd5b81518015158114620003c3578182fd5b9392505050565b6000600019821415620003eb57634e487b7160e01b81526011600452602481fd5b5060010190565b634e487b7160e01b600052604160045260246000fd5b613a5b80620004186000396000f3fe6080604052600436106102085760003560e01c80637035ab9811610118578063bcd11014116100a0578063df3798761161006f578063df37987614610678578063e70b9e27146106a6578063f1229777146106de578063f2fde38b146106fe578063f46eccc41461071e57600080fd5b8063bcd1101414610600578063ca5c7b9114610620578063db2e21bc14610636578063dc01f60d1461064b57600080fd5b80638980f11f116100e75780638980f11f1461056d5780638da5cb5b1461058d578063a01c77bc146105ab578063abe50f19146105c0578063b66503cf146105e057600080fd5b80637035ab98146104e0578063715018a61461051857806372f702f31461052d5780637bb7bed11461054d57600080fd5b806340b47e1a1161019b5780635e0fac2e1161016a5780635e0fac2e1461042a578063638634ee1461044a5780636724c9101461046a5780636b61a1721461048a5780636eacd398146104aa57600080fd5b806340b47e1a1461035057806340c10f191461037057806341ac34e51461039057806348e5d9f8146103c857600080fd5b80632e1a7d4d116101d75780632e1a7d4d146102b7578063386a9525146102d957806339fc9713146102f05780633d18b9121461033b57600080fd5b806302b6293814610214578063045544431461024e5780630483a7f61461027157806318160ddd146102a157600080fd5b3661020f57005b600080fd5b34801561022057600080fd5b5061023461022f3660046136fa565b61074e565b604080519283526020830191909152015b60405180910390f35b34801561025a57600080fd5b506102636108bf565b604051908152602001610245565b34801561027d57600080fd5b5061029161028c3660046136fa565b6108d0565b604051610245949392919061391d565b3480156102ad57600080fd5b50610263600b5481565b3480156102c357600080fd5b506102d76102d23660046137d1565b610af5565b005b3480156102e557600080fd5b5061026362093a8081565b3480156102fc57600080fd5b5061032b61030b366004613714565b600860209081526000928352604080842090915290825290205460ff1681565b6040519015158152602001610245565b34801561034757600080fd5b506102d761112c565b34801561035c57600080fd5b506102d761036b366004613714565b61146c565b34801561037c57600080fd5b506102d761038b36600461378c565b6115ed565b34801561039c57600080fd5b506103b06103ab3660046137d1565b611ab5565b6040516001600160a01b039091168152602001610245565b3480156103d457600080fd5b5061040a6103e33660046136fa565b60056020526000908152604090208054600182015460028301546003909301549192909184565b604080519485526020850193909352918301526060820152608001610245565b34801561043657600080fd5b506102636104453660046136fa565b611adf565b34801561045657600080fd5b506102636104653660046136fa565b611ba8565b34801561047657600080fd5b506102d7610485366004613746565b611bd2565b34801561049657600080fd5b506003546103b0906001600160a01b031681565b3480156104b657600080fd5b506102636104c53660046136fa565b6001600160a01b03166000908152600d602052604090205490565b3480156104ec57600080fd5b506102636104fb366004613714565b600960209081526000928352604080842090915290825290205481565b34801561052457600080fd5b506102d7611cd5565b34801561053957600080fd5b506002546103b0906001600160a01b031681565b34801561055957600080fd5b506103b06105683660046137d1565b611ce7565b34801561057957600080fd5b506102d761058836600461378c565b611cf7565b34801561059957600080fd5b506001546001600160a01b03166103b0565b3480156105b757600080fd5b506102d7611e8a565b3480156105cc57600080fd5b506102d76105db3660046137e9565b612028565b3480156105ec57600080fd5b506102d76105fb36600461378c565b612497565b34801561060c57600080fd5b5061026361061b3660046136fa565b612804565b34801561062c57600080fd5b50610263600c5481565b34801561064257600080fd5b506102d761282d565b34801561065757600080fd5b5061066b6106663660046136fa565b612aea565b6040516102459190613879565b34801561068457600080fd5b506106986106933660046136fa565b612cca565b604051610245929190613904565b3480156106b257600080fd5b506102636106c1366004613714565b600a60209081526000928352604080842090915290825290205481565b3480156106ea57600080fd5b506102636106f93660046136fa565b612e71565b34801561070a57600080fd5b506102d76107193660046136fa565b612eaa565b34801561072a57600080fd5b5061032b6107393660046136fa565b60066020526000908152604090205460ff1681565b6001600160a01b0381166000908152600d60205260408120600381015482919015610892576001600160a01b0384166000908152600f6020526040812054815b8181101561086a576001600160a01b0387166000908152600f602052604081208054839081106107ce57634e487b7160e01b600052603260045260246000fd5b906000526020600020906002020160000154905080600014156107f15750610858565b6001600160a01b0388166000908152600f6020526040902080544291908490811061082c57634e487b7160e01b600052603260045260246000fd5b906000526020600020906002020160010154111561084a575061086a565b6108548482612f20565b9350505b80610862816139e6565b91505061078e565b5061088d6002610887848660030154612f2c90919063ffffffff16565b90612f38565b935050505b6108b7826108b183600301548460010154612f2090919063ffffffff16565b90612f2c565b925050915091565b6108cd62093a806004613984565b81565b6001600160a01b0381166000908152600e602052604081208190819060609082805b8254811015610acd574283828154811061091c57634e487b7160e01b600052603260045260246000fd5b9060005260206000209060020201600101541115610a7d57816109b55782546109469082906139a3565b67ffffffffffffffff81111561096c57634e487b7160e01b600052604160045260246000fd5b6040519080825280602002602001820160405280156109b157816020015b604080518082019091526000808252602082015281526020019060019003908161098a5790505b5093505b8281815481106109d557634e487b7160e01b600052603260045260246000fd5b906000526020600020906002020160405180604001604052908160008201548152602001600182015481525050848381518110610a2257634e487b7160e01b600052603260045260246000fd5b60200260200101819052508180610a38906139e6565b925050610a76838281548110610a5e57634e487b7160e01b600052603260045260246000fd5b60009182526020909120600290910201548690612f20565b9450610abb565b610ab8838281548110610aa057634e487b7160e01b600052603260045260246000fd5b60009182526020909120600290910201548790612f20565b95505b80610ac5816139e6565b9150506108f2565b5050506001600160a01b0385166000908152600d602052604090206002015493509193509193565b610afd612f44565b600254600c5433916001600160a01b031690600090610b1c8382612f9e565b6001600160a01b038416600090815260056020526040902060030155610b4183611ba8565b6001600160a01b03808516600090815260056020526040902060020191909155841615610bed576001600160a01b0384166000908152600d6020526040902060020154610b92908590859084613033565b6001600160a01b038086166000818152600a602090815260408083209489168084529482528083209590955560058152848220600301548383526009825285832094835293815284822093909355908152600d909152205491505b50600b5460015b600454811015610cf75760048181548110610c1f57634e487b7160e01b600052603260045260246000fd5b6000918252602090912001546001600160a01b03169350610c408483612f9e565b6001600160a01b038516600090815260056020526040902060030155610c6584611ba8565b6001600160a01b03808616600090815260056020526040902060020191909155851615610ce557610c9885858585613033565b6001600160a01b038087166000818152600a60209081526040808320948a168084529482528083209590955560058152848220600301549282526009815284822093825292909252919020555b80610cef816139e6565b915050610bf4565b5060008511610d675760405162461bcd60e51b815260206004820152603160248201527f4d756c7469466565446973747269627574696f6e3a3a77697468647261773a20604482015270043616e6e6f74207769746864726177203607c1b60648201526084015b60405180910390fd5b336000908152600d6020526040812060018101549091908711610d9d576001820154610d939088612f2c565b6001830155611083565b6000610db6836001015489612f2c90919063ffffffff16565b90508083600301541015610e325760405162461bcd60e51b815260206004820152603d60248201527f4d756c7469466565446973747269627574696f6e3a3a77697468647261773a2060448201527f496e73756666696369656e7420756e6c6f636b65642062616c616e63650000006064820152608401610d5e565b600060018401556003830154610e489082612f2c565b600384015560005b336000908152600f60205260408120805483908110610e7f57634e487b7160e01b600052603260045260246000fd5b90600052602060002090600202016000015490508060001415610ea2575061106e565b83158015610ef15750336000908152600f60205260409020805442919084908110610edd57634e487b7160e01b600052603260045260246000fd5b906000526020600020906002020160010154115b15610fc4578293508285600301541015610f7e5760405162461bcd60e51b815260206004820152604260248201527f4d756c7469466565446973747269627574696f6e3a3a77697468647261773a2060448201527f496e73756666696369656e742062616c616e63652061667465722070656e616c606482015261747960f01b608482015260a401610d5e565b6003850154610f8d9084612f2c565b60038601819055610fb657336000908152600f60205260408120610fb0916136a3565b50611080565b610fc18360026130a7565b92505b80831161101b57610fd58184612f2c565b336000908152600f6020526040902080548490811061100457634e487b7160e01b600052603260045260246000fd5b600091825260209091206002909102015550611080565b336000908152600f6020526040902080548390811061104a57634e487b7160e01b600052603260045260246000fd5b6000918252602082206002909102018181556001015561106a8382612f2c565b9250505b80611078816139e6565b915050610e50565b50505b600061108f8883612f20565b835490915061109e9082612f2c565b8355600b546110ad9082612f2c565b600b556002546110c7906001600160a01b0316338a6130b3565b81156110e3576002546110e3906001600160a01b03168361311b565b60405188815233907f7084f5476618d8e60b11ef0d7d3f06914655adb8793e28ff7f018d4c76d505d59060200160405180910390a2505050505050506111296001600055565b50565b611134612f44565b600254600c5433916001600160a01b0316906000906111538382612f9e565b6001600160a01b03841660009081526005602052604090206003015561117883611ba8565b6001600160a01b03808516600090815260056020526040902060020191909155841615611224576001600160a01b0384166000908152600d60205260409020600201546111c9908590859084613033565b6001600160a01b038086166000818152600a602090815260408083209489168084529482528083209590955560058152848220600301548383526009825285832094835293815284822093909355908152600d909152205491505b50600b5460015b60045481101561132e576004818154811061125657634e487b7160e01b600052603260045260246000fd5b6000918252602090912001546001600160a01b031693506112778483612f9e565b6001600160a01b03851660009081526005602052604090206003015561129c84611ba8565b6001600160a01b0380861660009081526005602052604090206002019190915585161561131c576112cf85858585613033565b6001600160a01b038087166000818152600a60209081526040808320948a168084529482528083209590955560058152848220600301549282526009815284822093825292909252919020555b80611326816139e6565b91505061122b565b5060005b60045481101561145b5760006004828154811061135f57634e487b7160e01b600052603260045260246000fd5b6000918252602080832090910154338352600a825260408084206001600160a01b0390921680855291909252912054909150801561144657336000908152600a602090815260408083206001600160a01b03861680855292528220919091557382af49447d8a07e3bd95bd0d56f35241523fbab114156113f1576113e281613236565b6113ec338261329e565b611405565b6114056001600160a01b03831633836130b3565b6040518181526001600160a01b0383169033907f540798df468d7b23d11f156fdb954cb19ad414d150722a7b6d55ba369dea792e9060200160405180910390a35b50508080611453906139e6565b915050611332565b505050505061146a6001600055565b565b6114746133b7565b6001600160a01b038216600090815260056020526040902060020154156114ee5760405162461bcd60e51b815260206004820152602860248201527f4d756c7469466565446973747269627574696f6e3a3a6164645265776172643a60448201526708125b9d985b1a5960c21b6064820152608401610d5e565b6004805460018082019092557f8a35acfbc15ff81a39ae7d344fd709f28e8600b4aa8c65c6b64bfe7fe36bd19b0180546001600160a01b0319166001600160a01b03858116918217909255600081815260056020908152604080832042600282018190559055600882528083209487168352939052828120805460ff1916909417909355905190917ff3e4c2c64e71e6ba2eaab9a599bced62f9eb91d2cda610bf41aa8c80ff2cf82691a2806001600160a01b0316826001600160a01b03167fd890240fb430b9ed4ff1d263f43a0a2922d16349b3d2d71015f86a3e1d3e884860016040516115e1911515815260200190565b60405180910390a35050565b600254600c5483916001600160a01b03169060009061160c8382612f9e565b6001600160a01b03841660009081526005602052604090206003015561163183611ba8565b6001600160a01b038085166000908152600560205260409020600201919091558416156116dd576001600160a01b0384166000908152600d6020526040902060020154611682908590859084613033565b6001600160a01b038086166000818152600a602090815260408083209489168084529482528083209590955560058152848220600301548383526009825285832094835293815284822093909355908152600d909152205491505b50600b5460015b6004548110156117e7576004818154811061170f57634e487b7160e01b600052603260045260246000fd5b6000918252602090912001546001600160a01b031693506117308483612f9e565b6001600160a01b03851660009081526005602052604090206003015561175584611ba8565b6001600160a01b038086166000908152600560205260409020600201919091558516156117d55761178885858585613033565b6001600160a01b038087166000818152600a60209081526040808320948a168084529482528083209590955560058152848220600301549282526009815284822093825292909252919020555b806117df816139e6565b9150506116e4565b503360009081526006602052604090205460ff166118605760405162461bcd60e51b815260206004820152603060248201527f4d756c7469466565446973747269627574696f6e3a3a6d696e743a204f6e6c7960448201526f081b5a5b9d195c9cc8185b1b1bddd95960821b6064820152608401610d5e565b600b5461186d9086612f20565b600b556001600160a01b0386166000908152600d6020526040902080546118949087612f20565b815560038101546118a59087612f20565b600382015560006118da6118bd62093a806004613984565b6118d462093a806118ce4282612f38565b906130a7565b90612f20565b6001600160a01b0389166000908152600f6020526040902080549192509080158061193f5750828261190d6001846139a3565b8154811061192b57634e487b7160e01b600052603260045260246000fd5b906000526020600020906002020160010154105b15611981576040805180820190915289815260208082018581528454600181810187556000878152939093209351600290910290930192835551910155611a02565b6119c689836119916001856139a3565b815481106119af57634e487b7160e01b600052603260045260246000fd5b600091825260209091206002909102015490612f20565b826119d26001846139a3565b815481106119f057634e487b7160e01b600052603260045260246000fd5b60009182526020909120600290910201555b60035460405163a9059cbb60e01b8152306004820152602481018b90526001600160a01b039091169063a9059cbb90604401600060405180830381600087803b158015611a4e57600080fd5b505af1158015611a62573d6000803e3d6000fd5b50505050896001600160a01b03167f9e71bc8eea02a63969f509818f2dafb9254532904319f9dbda79b67bd34a5f3d8a604051611aa191815260200190565b60405180910390a250505050505050505050565b60078181548110611ac557600080fd5b6000918252602090912001546001600160a01b0316905081565b6001600160a01b0381166000908152600d6020908152604080832060010154338452600f909252822090915b8154811015611ba15742828281548110611b3557634e487b7160e01b600052603260045260246000fd5b9060005260206000209060020201600101541115611b5257611ba1565b611b8d828281548110611b7557634e487b7160e01b600052603260045260246000fd5b60009182526020909120600290910201548490612f20565b925080611b99816139e6565b915050611b0b565b5050919050565b6001600160a01b038116600090815260056020526040812054611bcc904290613411565b92915050565b611bda6133b7565b6001600160a01b038316600090815260056020526040902060020154611c685760405162461bcd60e51b815260206004820152603760248201527f4d756c7469466565446973747269627574696f6e3a3a617070726f766552657760448201527f6172644469737472696275746f723a20496e76616c69640000000000000000006064820152608401610d5e565b6001600160a01b03838116600081815260086020908152604080832094871680845294825291829020805460ff191686151590811790915591519182527fd890240fb430b9ed4ff1d263f43a0a2922d16349b3d2d71015f86a3e1d3e8848910160405180910390a3505050565b611cdd6133b7565b61146a6000613427565b60048181548110611ac557600080fd5b611cff6133b7565b6002546001600160a01b0383811691161415611d8d5760405162461bcd60e51b815260206004820152604160248201527f4d756c7469466565446973747269627574696f6e3a3a7265636f76657245524360448201527f32303a2043616e6e6f74207769746864726177207374616b696e6720746f6b656064820152603760f91b608482015260a401610d5e565b6001600160a01b03821660009081526005602052604090206002015415611e1e576040805162461bcd60e51b81526020600482015260248101919091527f4d756c7469466565446973747269627574696f6e3a3a7265636f76657245524360448201527f32303a2043616e6e6f742077697468647261772072657761726420746f6b656e6064820152608401610d5e565b611e44611e336001546001600160a01b031690565b6001600160a01b03841690836130b3565b604080516001600160a01b0384168152602081018390527f8c1256b8896378cd5044f80c202f9772b9d77dc85c8a6eb51967210b09bfaa28910160405180910390a15050565b336000908152600e60209081526040808320600d90925282208154919290914284611eb66001846139a3565b81548110611ed457634e487b7160e01b600052603260045260246000fd5b90600052602060002090600202016001015411611f11576002830154336000908152600e60205260408120919350611f0c91906136a3565b611fc9565b60005b81811015611fc75742858281548110611f3d57634e487b7160e01b600052603260045260246000fd5b9060005260206000209060020201600101541115611f5a57611fc7565b611f7d858281548110611b7557634e487b7160e01b600052603260045260246000fd5b9250848181548110611f9f57634e487b7160e01b600052603260045260246000fd5b6000918252602082206002909102018181556001015580611fbf816139e6565b915050611f14565b505b6002830154611fd89083612f2c565b60028401558254611fe99083612f2c565b8355600b54611ff89083612f2c565b600b55600c546120089083612f2c565b600c55600254612022906001600160a01b031633846130b3565b50505050565b612030612f44565b600254600c5433916001600160a01b03169060009061204f8382612f9e565b6001600160a01b03841660009081526005602052604090206003015561207483611ba8565b6001600160a01b03808516600090815260056020526040902060020191909155841615612120576001600160a01b0384166000908152600d60205260409020600201546120c5908590859084613033565b6001600160a01b038086166000818152600a602090815260408083209489168084529482528083209590955560058152848220600301548383526009825285832094835293815284822093909355908152600d909152205491505b50600b5460015b60045481101561222a576004818154811061215257634e487b7160e01b600052603260045260246000fd5b6000918252602090912001546001600160a01b031693506121738483612f9e565b6001600160a01b03851660009081526005602052604090206003015561219884611ba8565b6001600160a01b03808616600090815260056020526040902060020191909155851615612218576121cb85858585613033565b6001600160a01b038087166000818152600a60209081526040808320948a168084529482528083209590955560058152848220600301549282526009815284822093825292909252919020555b80612222816139e6565b915050612127565b506000861161228f5760405162461bcd60e51b815260206004820152602b60248201527f4d756c7469466565446973747269627574696f6e3a3a7374616b653a2043616e60448201526a06e6f74207374616b6520360ac1b6064820152608401610d5e565b600b5461229c9087612f20565b600b55336000908152600d6020526040902080546122ba9088612f20565b8155851561242257600c546122cf9088612f20565b600c5560028101546122e19088612f20565b600282015560006122f96118bd62093a806004613984565b336000908152600e60205260409020549091508015806123625750336000908152600e6020526040902082906123306001846139a3565b8154811061234e57634e487b7160e01b600052603260045260246000fd5b906000526020600020906002020160010154105b156123b157336000908152600e6020908152604080832081518083019092528c82528183018681528154600181810184559286529390942091516002909302909101918255915191015561241b565b336000908152600e602052604090206123d1908a906119916001856139a3565b336000908152600e602052604090206123eb6001846139a3565b8154811061240957634e487b7160e01b600052603260045260246000fd5b60009182526020909120600290910201555b5050612437565b60018101546124319088612f20565b60018201555b60025461244f906001600160a01b031633308a613479565b60405187815233907f9e71bc8eea02a63969f509818f2dafb9254532904319f9dbda79b67bd34a5f3d9060200160405180910390a250505050506124936001600055565b5050565b600254600c546000916001600160a01b03169082906124b68382612f9e565b6001600160a01b0384166000908152600560205260409020600301556124db83611ba8565b6001600160a01b03808516600090815260056020526040902060020191909155841615612587576001600160a01b0384166000908152600d602052604090206002015461252c908590859084613033565b6001600160a01b038086166000818152600a602090815260408083209489168084529482528083209590955560058152848220600301548383526009825285832094835293815284822093909355908152600d909152205491505b50600b5460015b60045481101561269157600481815481106125b957634e487b7160e01b600052603260045260246000fd5b6000918252602090912001546001600160a01b031693506125da8483612f9e565b6001600160a01b0385166000908152600560205260409020600301556125ff84611ba8565b6001600160a01b0380861660009081526005602052604090206002019190915585161561267f5761263285858585613033565b6001600160a01b038087166000818152600a60209081526040808320948a168084529482528083209590955560058152848220600301549282526009815284822093825292909252919020555b80612689816139e6565b91505061258e565b506001600160a01b038616600090815260086020908152604080832033845290915290205460ff1661273e5760405162461bcd60e51b815260206004820152604a60248201527f4d756c7469466565446973747269627574696f6e3a3a6e6f746966795265776160448201527f7264416d6f756e743a204f6e6c7920726577617264206469737472696275746f6064820152691c9cc8185b1b1bddd95960b21b608482015260a401610d5e565b600085116127aa5760405162461bcd60e51b815260206004820152603360248201527f4d756c7469466565446973747269627574696f6e3a3a6e6f74696679526577616044820152721c99105b5bdd5b9d0e88139bc81c995dd85c99606a1b6064820152608401610d5e565b6127bf6001600160a01b038716333088613479565b6127c9868661311b565b6040518581527fde88a922e0d3b88b24e9623efeb464919c6bf9f66857a65e2bfcf2ce87a9433d9060200160405180910390a1505050505050565b6001600160a01b038116600090815260056020526040812060010154611bcc9062093a806130a7565b600254600c5433916001600160a01b03169060009061284c8382612f9e565b6001600160a01b03841660009081526005602052604090206003015561287183611ba8565b6001600160a01b0380851660009081526005602052604090206002019190915584161561291d576001600160a01b0384166000908152600d60205260409020600201546128c2908590859084613033565b6001600160a01b038086166000818152600a602090815260408083209489168084529482528083209590955560058152848220600301548383526009825285832094835293815284822093909355908152600d909152205491505b50600b5460015b600454811015612a27576004818154811061294f57634e487b7160e01b600052603260045260246000fd5b6000918252602090912001546001600160a01b031693506129708483612f9e565b6001600160a01b03851660009081526005602052604090206003015561299584611ba8565b6001600160a01b03808616600090815260056020526040902060020191909155851615612a15576129c885858585613033565b6001600160a01b038087166000818152600a60209081526040808320948a168084529482528083209590955560058152848220600301549282526009815284822093825292909252919020555b80612a1f816139e6565b915050612924565b50600080612a343361074e565b336000908152600f60205260408120929450909250612a5391906136a3565b336000908152600d60205260409020600381015460018201548254612a7d92916108b19190612f2c565b81556000600182018190556003820155612aa3612a9a8484612f20565b600b5490612f2c565b600b55600254612abd906001600160a01b031633856130b3565b8115612ad957600254612ad9906001600160a01b03168361311b565b612ae161112c565b50505050505050565b60045460609067ffffffffffffffff811115612b1657634e487b7160e01b600052604160045260246000fd5b604051908082528060200260200182016040528015612b5b57816020015b6040805180820190915260008082526020820152815260200190600190039081612b345790505b50905060005b8151811015612cc45760008115612b90576001600160a01b0384166000908152600d6020526040902054612bad565b6001600160a01b0384166000908152600d60205260409020600201545b905060008215612bbf57600b54612bc3565b600c545b905060048381548110612be657634e487b7160e01b600052603260045260246000fd5b9060005260206000200160009054906101000a90046001600160a01b0316848481518110612c2457634e487b7160e01b600052603260045260246000fd5b6020026020010151600001906001600160a01b031690816001600160a01b031681525050612c7f85858581518110612c6c57634e487b7160e01b600052603260045260246000fd5b6020026020010151600001518484613033565b848481518110612c9f57634e487b7160e01b600052603260045260246000fd5b6020026020010151602001818152505050508080612cbc906139e6565b915050612b61565b50919050565b6001600160a01b0381166000908152600f6020526040812060609082805b8254811015612e695742838281548110612d1257634e487b7160e01b600052603260045260246000fd5b9060005260206000209060020201600101541115612e575781612dab578254612d3c9082906139a3565b67ffffffffffffffff811115612d6257634e487b7160e01b600052604160045260246000fd5b604051908082528060200260200182016040528015612da757816020015b6040805180820190915260008082526020820152815260200190600190039081612d805790505b5093505b828181548110612dcb57634e487b7160e01b600052603260045260246000fd5b906000526020600020906002020160405180604001604052908160008201548152602001600182015481525050848381518110612e1857634e487b7160e01b600052603260045260246000fd5b60200260200101819052508180612e2e906139e6565b925050612e54838281548110610a5e57634e487b7160e01b600052603260045260246000fd5b94505b80612e61816139e6565b915050612ce8565b505050915091565b60025460009081906001600160a01b03848116911614612e9357600b54612e97565b600c545b9050612ea38382612f9e565b9392505050565b612eb26133b7565b6001600160a01b038116612f175760405162461bcd60e51b815260206004820152602660248201527f4f776e61626c653a206e6577206f776e657220697320746865207a65726f206160448201526564647265737360d01b6064820152608401610d5e565b61112981613427565b6000612ea3828461394c565b6000612ea382846139a3565b6000612ea38284613964565b60026000541415612f975760405162461bcd60e51b815260206004820152601f60248201527f5265656e7472616e637947756172643a207265656e7472616e742063616c6c006044820152606401610d5e565b6002600055565b600081612fc757506001600160a01b038216600090815260056020526040902060030154611bcc565b6001600160a01b03831660009081526005602052604090206001810154600290910154612ea39161301191859161088791670de0b6b3a7640000916118ce9182906108b18c611ba8565b6001600160a01b03851660009081526005602052604090206003015490612f20565b6001600160a01b038085166000818152600a6020908152604080832094881680845294825280832054938352600982528083209483529390529182205461309c91906118d490670de0b6b3a76400009061088790613095906108b18b8a612f9e565b88906130a7565b90505b949350505050565b6000612ea38284613984565b6040516001600160a01b03831660248201526044810182905261311690849063a9059cbb60e01b906064015b60408051601f198184030181529190526020810180516001600160e01b03166001600160e01b0319909316929092179091526134b1565b505050565b6001600160a01b0382166000908152600560205260409020544210613168576131478162093a80612f38565b6001600160a01b0383166000908152600560205260409020600101556131e8565b6001600160a01b03821660009081526005602052604081205461318b9042612f2c565b6001600160a01b038416600090815260056020526040812060010154919250906131b69083906130a7565b90506131c962093a806108878584612f20565b6001600160a01b03851660009081526005602052604090206001015550505b6001600160a01b03821660009081526005602052604090204260029091018190556132169062093a80612f20565b6001600160a01b0390921660009081526005602052604090209190915550565b604051632e1a7d4d60e01b8152600481018290527382af49447d8a07e3bd95bd0d56f35241523fbab190632e1a7d4d90602401600060405180830381600087803b15801561328357600080fd5b505af1158015613297573d6000803e3d6000fd5b5050505050565b804710156132ee5760405162461bcd60e51b815260206004820152601d60248201527f416464726573733a20696e73756666696369656e742062616c616e63650000006044820152606401610d5e565b6000826001600160a01b03168260405160006040518083038185875af1925050503d806000811461333b576040519150601f19603f3d011682016040523d82523d6000602084013e613340565b606091505b50509050806131165760405162461bcd60e51b815260206004820152603a60248201527f416464726573733a20756e61626c6520746f2073656e642076616c75652c207260448201527f6563697069656e74206d617920686176652072657665727465640000000000006064820152608401610d5e565b6001546001600160a01b0316331461146a5760405162461bcd60e51b815260206004820181905260248201527f4f776e61626c653a2063616c6c6572206973206e6f7420746865206f776e65726044820152606401610d5e565b60008183106134205781612ea3565b5090919050565b600180546001600160a01b038381166001600160a01b0319831681179093556040519116919082907f8be0079c531659141344cd1fd0a4f28419497f9722a3daafe3b4186f6b6457e090600090a35050565b6040516001600160a01b03808516602483015283166044820152606481018290526120229085906323b872dd60e01b906084016130df565b6000613506826040518060400160405280602081526020017f5361666545524332303a206c6f772d6c6576656c2063616c6c206661696c6564815250856001600160a01b03166135839092919063ffffffff16565b805190915015613116578080602001905181019061352491906137b5565b6131165760405162461bcd60e51b815260206004820152602a60248201527f5361666545524332303a204552433230206f7065726174696f6e20646964206e6044820152691bdd081cdd58d8d9595960b21b6064820152608401610d5e565b606061309f848460008585600080866001600160a01b031685876040516135aa919061385d565b60006040518083038185875af1925050503d80600081146135e7576040519150601f19603f3d011682016040523d82523d6000602084013e6135ec565b606091505b50915091506135fd87838387613608565b979650505050505050565b6060831561367457825161366d576001600160a01b0385163b61366d5760405162461bcd60e51b815260206004820152601d60248201527f416464726573733a2063616c6c20746f206e6f6e2d636f6e74726163740000006044820152606401610d5e565b508161309f565b61309f83838151156136895781518083602001fd5b8060405162461bcd60e51b8152600401610d5e91906138d1565b508054600082556002029060005260206000209081019061112991905b808211156136da57600080825560018201556002016136c0565b5090565b80356001600160a01b03811681146136f557600080fd5b919050565b60006020828403121561370b578081fd5b612ea3826136de565b60008060408385031215613726578081fd5b61372f836136de565b915061373d602084016136de565b90509250929050565b60008060006060848603121561375a578081fd5b613763846136de565b9250613771602085016136de565b9150604084013561378181613a17565b809150509250925092565b6000806040838503121561379e578182fd5b6137a7836136de565b946020939093013593505050565b6000602082840312156137c6578081fd5b8151612ea381613a17565b6000602082840312156137e2578081fd5b5035919050565b600080604083850312156137fb578182fd5b82359150602083013561380d81613a17565b809150509250929050565b6000815180845260208085019450808401835b8381101561385257815180518852830151838801526040909601959082019060010161382b565b509495945050505050565b6000825161386f8184602087016139ba565b9190910192915050565b602080825282518282018190526000919060409081850190868401855b828110156138c457815180516001600160a01b03168552860151868501529284019290850190600101613896565b5091979650505050505050565b60208152600082518060208401526138f08160408501602087016139ba565b601f01601f19169190910160400192915050565b82815260406020820152600061309f6040830184613818565b8481528360208201528260408201526080606082015260006139426080830184613818565b9695505050505050565b6000821982111561395f5761395f613a01565b500190565b60008261397f57634e487b7160e01b81526012600452602481fd5b500490565b600081600019048311821515161561399e5761399e613a01565b500290565b6000828210156139b5576139b5613a01565b500390565b60005b838110156139d55781810151838201526020016139bd565b838111156120225750506000910152565b60006000198214156139fa576139fa613a01565b5060010190565b634e487b7160e01b600052601160045260246000fd5b801515811461112957600080fdfea2646970667358221220d1ddae5e5f906bc0422306d9f83b8ebf9a9550f203b6cbf8b1e2d64a7aa2306564736f6c63430008040033",
  "libraries": {
    "WethUtils": "0x76dceC859565E5cadfA738dC7b67cd9354Cbf901"
  },
  "devdoc": {
    "kind": "dev",
    "methods": {
      "owner()": {
        "details": "Returns the address of the current owner."
      },
      "renounceOwnership()": {
        "details": "Leaves the contract without owner. It will not be possible to call `onlyOwner` functions anymore. Can only be called by the current owner. NOTE: Renouncing ownership will leave the contract without an owner, thereby removing any functionality that is only available to the owner."
      },
      "transferOwnership(address)": {
        "details": "Transfers ownership of the contract to a new account (`newOwner`). Can only be called by the current owner."
      }
    },
    "version": 1
  },
  "userdoc": {
    "kind": "user",
    "methods": {},
    "version": 1
  },
  "storageLayout": {
    "storage": [
      {
        "astId": 292,
        "contract": "contracts/farms/WonderfulStaking.sol:WonderfulStaking",
        "label": "_status",
        "offset": 0,
        "slot": "0",
        "type": "t_uint256"
      },
      {
        "astId": 7,
        "contract": "contracts/farms/WonderfulStaking.sol:WonderfulStaking",
        "label": "_owner",
        "offset": 0,
        "slot": "1",
        "type": "t_address"
      },
      {
        "astId": 7336,
        "contract": "contracts/farms/WonderfulStaking.sol:WonderfulStaking",
        "label": "stakingToken",
        "offset": 0,
        "slot": "2",
        "type": "t_contract(IYToken)10107"
      },
      {
        "astId": 7339,
        "contract": "contracts/farms/WonderfulStaking.sol:WonderfulStaking",
        "label": "stakingTokenReserve",
        "offset": 0,
        "slot": "3",
        "type": "t_contract(IYTokenReserve)10131"
      },
      {
        "astId": 7342,
        "contract": "contracts/farms/WonderfulStaking.sol:WonderfulStaking",
        "label": "rewardTokens",
        "offset": 0,
        "slot": "4",
        "type": "t_array(t_address)dyn_storage"
      },
      {
        "astId": 7347,
        "contract": "contracts/farms/WonderfulStaking.sol:WonderfulStaking",
        "label": "rewardData",
        "offset": 0,
        "slot": "5",
        "type": "t_mapping(t_address,t_struct(Reward)7314_storage)"
      },
      {
        "astId": 7361,
        "contract": "contracts/farms/WonderfulStaking.sol:WonderfulStaking",
        "label": "minters",
        "offset": 0,
        "slot": "6",
        "type": "t_mapping(t_address,t_bool)"
      },
      {
        "astId": 7364,
        "contract": "contracts/farms/WonderfulStaking.sol:WonderfulStaking",
        "label": "mintersArray",
        "offset": 0,
        "slot": "7",
        "type": "t_array(t_address)dyn_storage"
      },
      {
        "astId": 7370,
        "contract": "contracts/farms/WonderfulStaking.sol:WonderfulStaking",
        "label": "rewardDistributors",
        "offset": 0,
        "slot": "8",
        "type": "t_mapping(t_address,t_mapping(t_address,t_bool))"
      },
      {
        "astId": 7376,
        "contract": "contracts/farms/WonderfulStaking.sol:WonderfulStaking",
        "label": "userRewardPerTokenPaid",
        "offset": 0,
        "slot": "9",
        "type": "t_mapping(t_address,t_mapping(t_address,t_uint256))"
      },
      {
        "astId": 7382,
        "contract": "contracts/farms/WonderfulStaking.sol:WonderfulStaking",
        "label": "rewards",
        "offset": 0,
        "slot": "10",
        "type": "t_mapping(t_address,t_mapping(t_address,t_uint256))"
      },
      {
        "astId": 7384,
        "contract": "contracts/farms/WonderfulStaking.sol:WonderfulStaking",
        "label": "totalSupply",
        "offset": 0,
        "slot": "11",
        "type": "t_uint256"
      },
      {
        "astId": 7386,
        "contract": "contracts/farms/WonderfulStaking.sol:WonderfulStaking",
        "label": "lockedSupply",
        "offset": 0,
        "slot": "12",
        "type": "t_uint256"
      },
      {
        "astId": 7391,
        "contract": "contracts/farms/WonderfulStaking.sol:WonderfulStaking",
        "label": "balances",
        "offset": 0,
        "slot": "13",
        "type": "t_mapping(t_address,t_struct(Balances)7323_storage)"
      },
      {
        "astId": 7397,
        "contract": "contracts/farms/WonderfulStaking.sol:WonderfulStaking",
        "label": "userLocks",
        "offset": 0,
        "slot": "14",
        "type": "t_mapping(t_address,t_array(t_struct(LockedBalance)7328_storage)dyn_storage)"
      },
      {
        "astId": 7403,
        "contract": "contracts/farms/WonderfulStaking.sol:WonderfulStaking",
        "label": "userEarnings",
        "offset": 0,
        "slot": "15",
        "type": "t_mapping(t_address,t_array(t_struct(LockedBalance)7328_storage)dyn_storage)"
      }
    ],
    "types": {
      "t_address": {
        "encoding": "inplace",
        "label": "address",
        "numberOfBytes": "20"
      },
      "t_array(t_address)dyn_storage": {
        "base": "t_address",
        "encoding": "dynamic_array",
        "label": "address[]",
        "numberOfBytes": "32"
      },
      "t_array(t_struct(LockedBalance)7328_storage)dyn_storage": {
        "base": "t_struct(LockedBalance)7328_storage",
        "encoding": "dynamic_array",
        "label": "struct WonderfulStaking.LockedBalance[]",
        "numberOfBytes": "32"
      },
      "t_bool": {
        "encoding": "inplace",
        "label": "bool",
        "numberOfBytes": "1"
      },
      "t_contract(IYToken)10107": {
        "encoding": "inplace",
        "label": "contract IYToken",
        "numberOfBytes": "20"
      },
      "t_contract(IYTokenReserve)10131": {
        "encoding": "inplace",
        "label": "contract IYTokenReserve",
        "numberOfBytes": "20"
      },
      "t_mapping(t_address,t_array(t_struct(LockedBalance)7328_storage)dyn_storage)": {
        "encoding": "mapping",
        "key": "t_address",
        "label": "mapping(address => struct WonderfulStaking.LockedBalance[])",
        "numberOfBytes": "32",
        "value": "t_array(t_struct(LockedBalance)7328_storage)dyn_storage"
      },
      "t_mapping(t_address,t_bool)": {
        "encoding": "mapping",
        "key": "t_address",
        "label": "mapping(address => bool)",
        "numberOfBytes": "32",
        "value": "t_bool"
      },
      "t_mapping(t_address,t_mapping(t_address,t_bool))": {
        "encoding": "mapping",
        "key": "t_address",
        "label": "mapping(address => mapping(address => bool))",
        "numberOfBytes": "32",
        "value": "t_mapping(t_address,t_bool)"
      },
      "t_mapping(t_address,t_mapping(t_address,t_uint256))": {
        "encoding": "mapping",
        "key": "t_address",
        "label": "mapping(address => mapping(address => uint256))",
        "numberOfBytes": "32",
        "value": "t_mapping(t_address,t_uint256)"
      },
      "t_mapping(t_address,t_struct(Balances)7323_storage)": {
        "encoding": "mapping",
        "key": "t_address",
        "label": "mapping(address => struct WonderfulStaking.Balances)",
        "numberOfBytes": "32",
        "value": "t_struct(Balances)7323_storage"
      },
      "t_mapping(t_address,t_struct(Reward)7314_storage)": {
        "encoding": "mapping",
        "key": "t_address",
        "label": "mapping(address => struct WonderfulStaking.Reward)",
        "numberOfBytes": "32",
        "value": "t_struct(Reward)7314_storage"
      },
      "t_mapping(t_address,t_uint256)": {
        "encoding": "mapping",
        "key": "t_address",
        "label": "mapping(address => uint256)",
        "numberOfBytes": "32",
        "value": "t_uint256"
      },
      "t_struct(Balances)7323_storage": {
        "encoding": "inplace",
        "label": "struct WonderfulStaking.Balances",
        "members": [
          {
            "astId": 7316,
            "contract": "contracts/farms/WonderfulStaking.sol:WonderfulStaking",
            "label": "total",
            "offset": 0,
            "slot": "0",
            "type": "t_uint256"
          },
          {
            "astId": 7318,
            "contract": "contracts/farms/WonderfulStaking.sol:WonderfulStaking",
            "label": "unlocked",
            "offset": 0,
            "slot": "1",
            "type": "t_uint256"
          },
          {
            "astId": 7320,
            "contract": "contracts/farms/WonderfulStaking.sol:WonderfulStaking",
            "label": "locked",
            "offset": 0,
            "slot": "2",
            "type": "t_uint256"
          },
          {
            "astId": 7322,
            "contract": "contracts/farms/WonderfulStaking.sol:WonderfulStaking",
            "label": "earned",
            "offset": 0,
            "slot": "3",
            "type": "t_uint256"
          }
        ],
        "numberOfBytes": "128"
      },
      "t_struct(LockedBalance)7328_storage": {
        "encoding": "inplace",
        "label": "struct WonderfulStaking.LockedBalance",
        "members": [
          {
            "astId": 7325,
            "contract": "contracts/farms/WonderfulStaking.sol:WonderfulStaking",
            "label": "amount",
            "offset": 0,
            "slot": "0",
            "type": "t_uint256"
          },
          {
            "astId": 7327,
            "contract": "contracts/farms/WonderfulStaking.sol:WonderfulStaking",
            "label": "unlockTime",
            "offset": 0,
            "slot": "1",
            "type": "t_uint256"
          }
        ],
        "numberOfBytes": "64"
      },
      "t_struct(Reward)7314_storage": {
        "encoding": "inplace",
        "label": "struct WonderfulStaking.Reward",
        "members": [
          {
            "astId": 7307,
            "contract": "contracts/farms/WonderfulStaking.sol:WonderfulStaking",
            "label": "periodFinish",
            "offset": 0,
            "slot": "0",
            "type": "t_uint256"
          },
          {
            "astId": 7309,
            "contract": "contracts/farms/WonderfulStaking.sol:WonderfulStaking",
            "label": "rewardRate",
            "offset": 0,
            "slot": "1",
            "type": "t_uint256"
          },
          {
            "astId": 7311,
            "contract": "contracts/farms/WonderfulStaking.sol:WonderfulStaking",
            "label": "lastUpdateTime",
            "offset": 0,
            "slot": "2",
            "type": "t_uint256"
          },
          {
            "astId": 7313,
            "contract": "contracts/farms/WonderfulStaking.sol:WonderfulStaking",
            "label": "rewardPerTokenStored",
            "offset": 0,
            "slot": "3",
            "type": "t_uint256"
          }
        ],
        "numberOfBytes": "128"
      },
      "t_uint256": {
        "encoding": "inplace",
        "label": "uint256",
        "numberOfBytes": "32"
      }
    }
  }
}