{
  "address": "0xf43c355Da992c5dA1E19a37B4FeC09215D20bEC2",
  "abi": [
    {
      "inputs": [
        {
          "internalType": "string",
          "name": "_name",
          "type": "string"
        },
        {
          "internalType": "string",
          "name": "_symbol",
          "type": "string"
        },
        {
          "internalType": "address",
          "name": "_daoFund",
          "type": "address"
        },
        {
          "internalType": "address",
          "name": "_devFund",
          "type": "address"
        },
        {
          "internalType": "address",
          "name": "_treasuryFund",
          "type": "address"
        },
        {
          "internalType": "address",
          "name": "_airdropFund",
          "type": "address"
        },
        {
          "internalType": "address",
          "name": "_reserve",
          "type": "address"
        }
      ],
      "stateMutability": "nonpayable",
      "type": "constructor"
    },
    {
      "anonymous": false,
      "inputs": [
        {
          "indexed": true,
          "internalType": "address",
          "name": "owner",
          "type": "address"
        },
        {
          "indexed": true,
          "internalType": "address",
          "name": "spender",
          "type": "address"
        },
        {
          "indexed": false,
          "internalType": "uint256",
          "name": "value",
          "type": "uint256"
        }
      ],
      "name": "Approval",
      "type": "event"
    },
    {
      "anonymous": false,
      "inputs": [
        {
          "indexed": true,
          "internalType": "address",
          "name": "from",
          "type": "address"
        },
        {
          "indexed": true,
          "internalType": "address",
          "name": "to",
          "type": "address"
        },
        {
          "indexed": false,
          "internalType": "uint256",
          "name": "value",
          "type": "uint256"
        }
      ],
      "name": "Transfer",
      "type": "event"
    },
    {
      "inputs": [],
      "name": "MAX_TOTAL_SUPPLY",
      "outputs": [
        {
          "internalType": "uint256",
          "name": "",
          "type": "uint256"
        }
      ],
      "stateMutability": "view",
      "type": "function"
    },
    {
      "inputs": [
        {
          "internalType": "address",
          "name": "owner",
          "type": "address"
        },
        {
          "internalType": "address",
          "name": "spender",
          "type": "address"
        }
      ],
      "name": "allowance",
      "outputs": [
        {
          "internalType": "uint256",
          "name": "",
          "type": "uint256"
        }
      ],
      "stateMutability": "view",
      "type": "function"
    },
    {
      "inputs": [
        {
          "internalType": "address",
          "name": "spender",
          "type": "address"
        },
        {
          "internalType": "uint256",
          "name": "amount",
          "type": "uint256"
        }
      ],
      "name": "approve",
      "outputs": [
        {
          "internalType": "bool",
          "name": "",
          "type": "bool"
        }
      ],
      "stateMutability": "nonpayable",
      "type": "function"
    },
    {
      "inputs": [
        {
          "internalType": "address",
          "name": "account",
          "type": "address"
        }
      ],
      "name": "balanceOf",
      "outputs": [
        {
          "internalType": "uint256",
          "name": "",
          "type": "uint256"
        }
      ],
      "stateMutability": "view",
      "type": "function"
    },
    {
      "inputs": [
        {
          "internalType": "uint256",
          "name": "amount",
          "type": "uint256"
        }
      ],
      "name": "burn",
      "outputs": [],
      "stateMutability": "nonpayable",
      "type": "function"
    },
    {
      "inputs": [
        {
          "internalType": "address",
          "name": "account",
          "type": "address"
        },
        {
          "internalType": "uint256",
          "name": "amount",
          "type": "uint256"
        }
      ],
      "name": "burnFrom",
      "outputs": [],
      "stateMutability": "nonpayable",
      "type": "function"
    },
    {
      "inputs": [],
      "name": "decimals",
      "outputs": [
        {
          "internalType": "uint8",
          "name": "",
          "type": "uint8"
        }
      ],
      "stateMutability": "view",
      "type": "function"
    },
    {
      "inputs": [
        {
          "internalType": "address",
          "name": "spender",
          "type": "address"
        },
        {
          "internalType": "uint256",
          "name": "subtractedValue",
          "type": "uint256"
        }
      ],
      "name": "decreaseAllowance",
      "outputs": [
        {
          "internalType": "bool",
          "name": "",
          "type": "bool"
        }
      ],
      "stateMutability": "nonpayable",
      "type": "function"
    },
    {
      "inputs": [
        {
          "internalType": "address",
          "name": "spender",
          "type": "address"
        },
        {
          "internalType": "uint256",
          "name": "addedValue",
          "type": "uint256"
        }
      ],
      "name": "increaseAllowance",
      "outputs": [
        {
          "internalType": "bool",
          "name": "",
          "type": "bool"
        }
      ],
      "stateMutability": "nonpayable",
      "type": "function"
    },
    {
      "inputs": [],
      "name": "name",
      "outputs": [
        {
          "internalType": "string",
          "name": "",
          "type": "string"
        }
      ],
      "stateMutability": "view",
      "type": "function"
    },
    {
      "inputs": [],
      "name": "symbol",
      "outputs": [
        {
          "internalType": "string",
          "name": "",
          "type": "string"
        }
      ],
      "stateMutability": "view",
      "type": "function"
    },
    {
      "inputs": [],
      "name": "totalSupply",
      "outputs": [
        {
          "internalType": "uint256",
          "name": "",
          "type": "uint256"
        }
      ],
      "stateMutability": "view",
      "type": "function"
    },
    {
      "inputs": [
        {
          "internalType": "address",
          "name": "to",
          "type": "address"
        },
        {
          "internalType": "uint256",
          "name": "amount",
          "type": "uint256"
        }
      ],
      "name": "transfer",
      "outputs": [
        {
          "internalType": "bool",
          "name": "",
          "type": "bool"
        }
      ],
      "stateMutability": "nonpayable",
      "type": "function"
    },
    {
      "inputs": [
        {
          "internalType": "address",
          "name": "from",
          "type": "address"
        },
        {
          "internalType": "address",
          "name": "to",
          "type": "address"
        },
        {
          "internalType": "uint256",
          "name": "amount",
          "type": "uint256"
        }
      ],
      "name": "transferFrom",
      "outputs": [
        {
          "internalType": "bool",
          "name": "",
          "type": "bool"
        }
      ],
      "stateMutability": "nonpayable",
      "type": "function"
    }
  ],
  "transactionHash": "0x7ba8eb5c5052006d11923d5c1ead00548d5b8b87fbe3c2ca251904166a912ddd",
  "args": [
    "Wonderful Protocol AFX Token",
    "AFX",
    "0x42972EdecD94BDD19A622A6a419bDDed2de56E08",
    "0x2fEAE902d7779D638D204b830014B9b06036A36F",
    "0x7Edbf588B1FB15336b989570DAeeba487cA11a9D",
    "0xE1c07B6EFC994e3B4FFf20Aef8AA9bfbCD9151e6",
    "0x6be0bEbaDa3A85C5D4B3af1D364878fd094e7c60"
  ],
  "numDeployments": 1,
  "solcInputHash": "131d9b2a84d6bd2fe25b6ae0a79fc8a7",
  "bytecode": "0x60806040523480156200001157600080fd5b5060405162000f0238038062000f02833981016040819052620000349162000357565b86868181816003908051906020019062000050929190620001e1565b50805162000066906004906020840190620001e1565b5050505050620000863368056bc75e2d631000006200011b60201b60201c565b6200009d856a027b46536c66c8e30000006200011b565b620000b4846a027b46536c66c8e30000006200011b565b620000cb836a023bbf4b14c2e7ff8000006200011b565b620000e182693f870857a3e0e38000006200011b565b6200010e81620001086a0771d8660c92880c1000006a18d0bf423c03d8de00000062000436565b6200011b565b50505050505050620004b9565b6001600160a01b038216620001765760405162461bcd60e51b815260206004820152601f60248201527f45524332303a206d696e7420746f20746865207a65726f206164647265737300604482015260640160405180910390fd5b80600260008282546200018a91906200041b565b90915550506001600160a01b038216600081815260208181526040808320805486019055518481527fddf252ad1be2c89b69c2b068fc378daa952ba7f163c4a11628f55a4df523b3ef910160405180910390a35050565b828054620001ef9062000450565b90600052602060002090601f0160209004810192826200021357600085556200025e565b82601f106200022e57805160ff19168380011785556200025e565b828001600101855582156200025e579182015b828111156200025e57825182559160200191906001019062000241565b506200026c92915062000270565b5090565b5b808211156200026c576000815560010162000271565b80516001600160a01b03811681146200029f57600080fd5b919050565b600082601f830112620002b5578081fd5b81516001600160401b0380821115620002d257620002d2620004a3565b604051601f8301601f19908116603f01168101908282118183101715620002fd57620002fd620004a3565b8160405283815260209250868385880101111562000319578485fd5b8491505b838210156200033c57858201830151818301840152908201906200031d565b838211156200034d57848385830101525b9695505050505050565b600080600080600080600060e0888a03121562000372578283fd5b87516001600160401b038082111562000389578485fd5b620003978b838c01620002a4565b985060208a0151915080821115620003ad578485fd5b50620003bc8a828b01620002a4565b965050620003cd6040890162000287565b9450620003dd6060890162000287565b9350620003ed6080890162000287565b9250620003fd60a0890162000287565b91506200040d60c0890162000287565b905092959891949750929550565b600082198211156200043157620004316200048d565b500190565b6000828210156200044b576200044b6200048d565b500390565b600181811c908216806200046557607f821691505b602082108114156200048757634e487b7160e01b600052602260045260246000fd5b50919050565b634e487b7160e01b600052601160045260246000fd5b634e487b7160e01b600052604160045260246000fd5b610a3980620004c96000396000f3fe608060405234801561001057600080fd5b50600436106100ea5760003560e01c806342966c681161008c57806395d89b411161006657806395d89b41146101da578063a457c2d7146101e2578063a9059cbb146101f5578063dd62ed3e1461020857600080fd5b806342966c681461018957806370a082311461019e57806379cc6790146101c757600080fd5b806323b872dd116100c857806323b872dd14610142578063313ce5671461015557806333039d3d14610164578063395093511461017657600080fd5b806306fdde03146100ef578063095ea7b31461010d57806318160ddd14610130575b600080fd5b6100f761021b565b6040516101049190610951565b60405180910390f35b61012061011b366004610910565b6102ad565b6040519015158152602001610104565b6002545b604051908152602001610104565b6101206101503660046108d5565b6102c5565b60405160128152602001610104565b6101346a18d0bf423c03d8de00000081565b610120610184366004610910565b6102e9565b61019c610197366004610939565b61030b565b005b6101346101ac366004610882565b6001600160a01b031660009081526020819052604090205490565b61019c6101d5366004610910565b610318565b6100f7610331565b6101206101f0366004610910565b610340565b610120610203366004610910565b6103c0565b6101346102163660046108a3565b6103ce565b60606003805461022a906109c8565b80601f0160208091040260200160405190810160405280929190818152602001828054610256906109c8565b80156102a35780601f10610278576101008083540402835291602001916102a3565b820191906000526020600020905b81548152906001019060200180831161028657829003601f168201915b5050505050905090565b6000336102bb8185856103f9565b5060019392505050565b6000336102d385828561051e565b6102de858585610598565b506001949350505050565b6000336102bb8185856102fc83836103ce565b61030691906109a4565b6103f9565b610315338261073c565b50565b61032382338361051e565b61032d828261073c565b5050565b60606004805461022a906109c8565b6000338161034e82866103ce565b9050838110156103b35760405162461bcd60e51b815260206004820152602560248201527f45524332303a2064656372656173656420616c6c6f77616e63652062656c6f77604482015264207a65726f60d81b60648201526084015b60405180910390fd5b6102de82868684036103f9565b6000336102bb818585610598565b6001600160a01b03918216600090815260016020908152604080832093909416825291909152205490565b6001600160a01b03831661045b5760405162461bcd60e51b8152602060048201526024808201527f45524332303a20617070726f76652066726f6d20746865207a65726f206164646044820152637265737360e01b60648201526084016103aa565b6001600160a01b0382166104bc5760405162461bcd60e51b815260206004820152602260248201527f45524332303a20617070726f766520746f20746865207a65726f206164647265604482015261737360f01b60648201526084016103aa565b6001600160a01b0383811660008181526001602090815260408083209487168084529482529182902085905590518481527f8c5be1e5ebec7d5bd14f71427d1e84f3dd0314c0f7b2291e5b200ac8c7c3b92591015b60405180910390a3505050565b600061052a84846103ce565b9050600019811461059257818110156105855760405162461bcd60e51b815260206004820152601d60248201527f45524332303a20696e73756666696369656e7420616c6c6f77616e636500000060448201526064016103aa565b61059284848484036103f9565b50505050565b6001600160a01b0383166105fc5760405162461bcd60e51b815260206004820152602560248201527f45524332303a207472616e736665722066726f6d20746865207a65726f206164604482015264647265737360d81b60648201526084016103aa565b6001600160a01b03821661065e5760405162461bcd60e51b815260206004820152602360248201527f45524332303a207472616e7366657220746f20746865207a65726f206164647260448201526265737360e81b60648201526084016103aa565b6001600160a01b038316600090815260208190526040902054818110156106d65760405162461bcd60e51b815260206004820152602660248201527f45524332303a207472616e7366657220616d6f756e7420657863656564732062604482015265616c616e636560d01b60648201526084016103aa565b6001600160a01b03848116600081815260208181526040808320878703905593871680835291849020805487019055925185815290927fddf252ad1be2c89b69c2b068fc378daa952ba7f163c4a11628f55a4df523b3ef910160405180910390a3610592565b6001600160a01b03821661079c5760405162461bcd60e51b815260206004820152602160248201527f45524332303a206275726e2066726f6d20746865207a65726f206164647265736044820152607360f81b60648201526084016103aa565b6001600160a01b038216600090815260208190526040902054818110156108105760405162461bcd60e51b815260206004820152602260248201527f45524332303a206275726e20616d6f756e7420657863656564732062616c616e604482015261636560f01b60648201526084016103aa565b6001600160a01b0383166000818152602081815260408083208686039055600280548790039055518581529192917fddf252ad1be2c89b69c2b068fc378daa952ba7f163c4a11628f55a4df523b3ef9101610511565b80356001600160a01b038116811461087d57600080fd5b919050565b600060208284031215610893578081fd5b61089c82610866565b9392505050565b600080604083850312156108b5578081fd5b6108be83610866565b91506108cc60208401610866565b90509250929050565b6000806000606084860312156108e9578081fd5b6108f284610866565b925061090060208501610866565b9150604084013590509250925092565b60008060408385031215610922578182fd5b61092b83610866565b946020939093013593505050565b60006020828403121561094a578081fd5b5035919050565b6000602080835283518082850152825b8181101561097d57858101830151858201604001528201610961565b8181111561098e5783604083870101525b50601f01601f1916929092016040019392505050565b600082198211156109c357634e487b7160e01b81526011600452602481fd5b500190565b600181811c908216806109dc57607f821691505b602082108114156109fd57634e487b7160e01b600052602260045260246000fd5b5091905056fea2646970667358221220f7827219c73d3cb256c9adab51ae6fb758930f1d3da82bd0179f1d78cd4b9eec64736f6c63430008040033",
  "devdoc": {
    "kind": "dev",
    "methods": {
      "allowance(address,address)": {
        "details": "See {IERC20-allowance}."
      },
      "approve(address,uint256)": {
        "details": "See {IERC20-approve}. NOTE: If `amount` is the maximum `uint256`, the allowance is not updated on `transferFrom`. This is semantically equivalent to an infinite approval. Requirements: - `spender` cannot be the zero address."
      },
      "balanceOf(address)": {
        "details": "See {IERC20-balanceOf}."
      },
      "burn(uint256)": {
        "details": "Destroys `amount` tokens from the caller. See {ERC20-_burn}."
      },
      "burnFrom(address,uint256)": {
        "details": "Destroys `amount` tokens from `account`, deducting from the caller's allowance. See {ERC20-_burn} and {ERC20-allowance}. Requirements: - the caller must have allowance for ``accounts``'s tokens of at least `amount`."
      },
      "decimals()": {
        "details": "Returns the number of decimals used to get its user representation. For example, if `decimals` equals `2`, a balance of `505` tokens should be displayed to a user as `5.05` (`505 / 10 ** 2`). Tokens usually opt for a value of 18, imitating the relationship between Ether and Wei. This is the value {ERC20} uses, unless this function is overridden; NOTE: This information is only used for _display_ purposes: it in no way affects any of the arithmetic of the contract, including {IERC20-balanceOf} and {IERC20-transfer}."
      },
      "decreaseAllowance(address,uint256)": {
        "details": "Atomically decreases the allowance granted to `spender` by the caller. This is an alternative to {approve} that can be used as a mitigation for problems described in {IERC20-approve}. Emits an {Approval} event indicating the updated allowance. Requirements: - `spender` cannot be the zero address. - `spender` must have allowance for the caller of at least `subtractedValue`."
      },
      "increaseAllowance(address,uint256)": {
        "details": "Atomically increases the allowance granted to `spender` by the caller. This is an alternative to {approve} that can be used as a mitigation for problems described in {IERC20-approve}. Emits an {Approval} event indicating the updated allowance. Requirements: - `spender` cannot be the zero address."
      },
      "name()": {
        "details": "Returns the name of the token."
      },
      "symbol()": {
        "details": "Returns the symbol of the token, usually a shorter version of the name."
      },
      "totalSupply()": {
        "details": "See {IERC20-totalSupply}."
      },
      "transfer(address,uint256)": {
        "details": "See {IERC20-transfer}. Requirements: - `to` cannot be the zero address. - the caller must have a balance of at least `amount`."
      },
      "transferFrom(address,address,uint256)": {
        "details": "See {IERC20-transferFrom}. Emits an {Approval} event indicating the updated allowance. This is not required by the EIP. See the note at the beginning of {ERC20}. NOTE: Does not update the allowance if the current allowance is the maximum `uint256`. Requirements: - `from` and `to` cannot be the zero address. - `from` must have a balance of at least `amount`. - the caller must have allowance for ``from``'s tokens of at least `amount`."
      }
    },
    "version": 1
  },
  "userdoc": {
    "kind": "user",
    "methods": {},
    "version": 1
  },
  "storageLayout": {
    "storage": [
      {
        "astId": 351,
        "contract": "contracts/tokens/goerli/AFX.sol:AFX",
        "label": "_balances",
        "offset": 0,
        "slot": "0",
        "type": "t_mapping(t_address,t_uint256)"
      },
      {
        "astId": 357,
        "contract": "contracts/tokens/goerli/AFX.sol:AFX",
        "label": "_allowances",
        "offset": 0,
        "slot": "1",
        "type": "t_mapping(t_address,t_mapping(t_address,t_uint256))"
      },
      {
        "astId": 359,
        "contract": "contracts/tokens/goerli/AFX.sol:AFX",
        "label": "_totalSupply",
        "offset": 0,
        "slot": "2",
        "type": "t_uint256"
      },
      {
        "astId": 361,
        "contract": "contracts/tokens/goerli/AFX.sol:AFX",
        "label": "_name",
        "offset": 0,
        "slot": "3",
        "type": "t_string_storage"
      },
      {
        "astId": 363,
        "contract": "contracts/tokens/goerli/AFX.sol:AFX",
        "label": "_symbol",
        "offset": 0,
        "slot": "4",
        "type": "t_string_storage"
      }
    ],
    "types": {
      "t_address": {
        "encoding": "inplace",
        "label": "address",
        "numberOfBytes": "20"
      },
      "t_mapping(t_address,t_mapping(t_address,t_uint256))": {
        "encoding": "mapping",
        "key": "t_address",
        "label": "mapping(address => mapping(address => uint256))",
        "numberOfBytes": "32",
        "value": "t_mapping(t_address,t_uint256)"
      },
      "t_mapping(t_address,t_uint256)": {
        "encoding": "mapping",
        "key": "t_address",
        "label": "mapping(address => uint256)",
        "numberOfBytes": "32",
        "value": "t_uint256"
      },
      "t_string_storage": {
        "encoding": "bytes",
        "label": "string",
        "numberOfBytes": "32"
      },
      "t_uint256": {
        "encoding": "inplace",
        "label": "uint256",
        "numberOfBytes": "32"
      }
    }
  }
}