{
  "address": "0x6be0bEbaDa3A85C5D4B3af1D364878fd094e7c60",
  "abi": [
    {
      "anonymous": false,
      "inputs": [
        {
          "indexed": false,
          "internalType": "uint8",
          "name": "version",
          "type": "uint8"
        }
      ],
      "name": "Initialized",
      "type": "event"
    },
    {
      "inputs": [],
      "name": "afx",
      "outputs": [
        {
          "internalType": "contract IERC20",
          "name": "",
          "type": "address"
        }
      ],
      "stateMutability": "view",
      "type": "function"
    },
    {
      "inputs": [
        {
          "internalType": "address",
          "name": "_afx",
          "type": "address"
        }
      ],
      "name": "initialize",
      "outputs": [],
      "stateMutability": "nonpayable",
      "type": "function"
    },
    {
      "inputs": [],
      "name": "pool",
      "outputs": [
        {
          "internalType": "address",
          "name": "",
          "type": "address"
        }
      ],
      "stateMutability": "view",
      "type": "function"
    },
    {
      "inputs": [],
      "name": "rewarder",
      "outputs": [
        {
          "internalType": "address",
          "name": "",
          "type": "address"
        }
      ],
      "stateMutability": "view",
      "type": "function"
    },
    {
      "inputs": [
        {
          "internalType": "address",
          "name": "_pool",
          "type": "address"
        }
      ],
      "name": "setPool",
      "outputs": [
        {
          "internalType": "bool",
          "name": "",
          "type": "bool"
        }
      ],
      "stateMutability": "nonpayable",
      "type": "function"
    },
    {
      "inputs": [
        {
          "internalType": "address",
          "name": "_rewarder",
          "type": "address"
        }
      ],
      "name": "setRewarder",
      "outputs": [
        {
          "internalType": "bool",
          "name": "",
          "type": "bool"
        }
      ],
      "stateMutability": "nonpayable",
      "type": "function"
    },
    {
      "inputs": [
        {
          "internalType": "address",
          "name": "_to",
          "type": "address"
        },
        {
          "internalType": "uint256",
          "name": "_amount",
          "type": "uint256"
        }
      ],
      "name": "transfer",
      "outputs": [],
      "stateMutability": "nonpayable",
      "type": "function"
    }
  ],
  "transactionHash": "0xffee7b00a3502d2bc17d4c1c41b5112ebecc266e23cf8ad9b54cbe75572ac8e4",
  "args": [],
  "numDeployments": 1,
  "solcInputHash": "131d9b2a84d6bd2fe25b6ae0a79fc8a7",
  "bytecode": "0x608060405234801561001057600080fd5b506108e4806100206000396000f3fe608060405234801561001057600080fd5b506004361061007d5760003560e01c806369b15af71161005b57806369b15af7146100e8578063a9059cbb14610101578063c4d66de814610116578063dcc3e06e1461012957600080fd5b806316f0115b146100825780633a6462e4146100b25780634437152a146100d5575b600080fd5b600254610095906001600160a01b031681565b6040516001600160a01b0390911681526020015b60405180910390f35b6100c56100c03660046107c5565b61013c565b60405190151581526020016100a9565b6100c56100e33660046107c5565b6101cd565b600054610095906201000090046001600160a01b031681565b61011461010f3660046107e6565b61024f565b005b6101146101243660046107c5565b610361565b600154610095906001600160a01b031681565b6001546000906001600160a01b0316156101a95760405162461bcd60e51b8152602060048201526024808201527f416678526573657276653a3a73657452657761726465723a204e4f545f414c4c60448201526313d5d15160e21b60648201526084015b60405180910390fd5b50600180546001600160a01b0319166001600160a01b039290921691909117815590565b6002546000906001600160a01b0316156102295760405162461bcd60e51b815260206004820181905260248201527f416678526573657276653a3a736574506f6f6c3a204e4f545f414c4c4f57454460448201526064016101a0565b50600280546001600160a01b0319166001600160a01b0392909216919091179055600190565b6001546001600160a01b031633148061027257506002546001600160a01b031633145b6102dc5760405162461bcd60e51b815260206004820152603560248201527f416678526573657276653a3a7472616e736665723a204f6e6c7920616c6c6f7760448201527465642066756e64732063616e20776974686472617760581b60648201526084016101a0565b6001600160a01b0382166103405760405162461bcd60e51b815260206004820152602560248201527f416678526573657276653a3a7472616e736665723a20496e76616c6964206164604482015264647265737360d81b60648201526084016101a0565b60005461035d906201000090046001600160a01b031683836104f3565b5050565b600054610100900460ff16158080156103815750600054600160ff909116105b8061039b5750303b15801561039b575060005460ff166001145b6103fe5760405162461bcd60e51b815260206004820152602e60248201527f496e697469616c697a61626c653a20636f6e747261637420697320616c72656160448201526d191e481a5b9a5d1a585b1a5e995960921b60648201526084016101a0565b6000805460ff191660011790558015610421576000805461ff0019166101001790555b6001600160a01b0382166104885760405162461bcd60e51b815260206004820152602860248201527f416678526573657276653a3a636f6e7374727563746f723a20696e76616c6964604482015267206164647265737360c01b60648201526084016101a0565b6000805462010000600160b01b031916620100006001600160a01b03851602179055801561035d576000805461ff0019169055604051600181527f7f26b83ff96e1f2b6a682f133852f6798a09c465da95921460cefb38474024989060200160405180910390a15050565b604080516001600160a01b038416602482015260448082018490528251808303909101815260649091019091526020810180516001600160e01b031663a9059cbb60e01b17905261054590849061054a565b505050565b600061059f826040518060400160405280602081526020017f5361666545524332303a206c6f772d6c6576656c2063616c6c206661696c6564815250856001600160a01b031661061c9092919063ffffffff16565b80519091501561054557808060200190518101906105bd919061080f565b6105455760405162461bcd60e51b815260206004820152602a60248201527f5361666545524332303a204552433230206f7065726174696f6e20646964206e6044820152691bdd081cdd58d8d9595960b21b60648201526084016101a0565b606061062b8484600085610633565b949350505050565b6060824710156106945760405162461bcd60e51b815260206004820152602660248201527f416464726573733a20696e73756666696369656e742062616c616e636520666f6044820152651c8818d85b1b60d21b60648201526084016101a0565b600080866001600160a01b031685876040516106b0919061082f565b60006040518083038185875af1925050503d80600081146106ed576040519150601f19603f3d011682016040523d82523d6000602084013e6106f2565b606091505b50915091506107038783838761070e565b979650505050505050565b6060831561077a578251610773576001600160a01b0385163b6107735760405162461bcd60e51b815260206004820152601d60248201527f416464726573733a2063616c6c20746f206e6f6e2d636f6e747261637400000060448201526064016101a0565b508161062b565b61062b838381511561078f5781518083602001fd5b8060405162461bcd60e51b81526004016101a0919061084b565b80356001600160a01b03811681146107c057600080fd5b919050565b6000602082840312156107d6578081fd5b6107df826107a9565b9392505050565b600080604083850312156107f8578081fd5b610801836107a9565b946020939093013593505050565b600060208284031215610820578081fd5b815180151581146107df578182fd5b6000825161084181846020870161087e565b9190910192915050565b602081526000825180602084015261086a81604085016020870161087e565b601f01601f19169190910160400192915050565b60005b83811015610899578181015183820152602001610881565b838111156108a8576000848401525b5050505056fea2646970667358221220150d79f51a257d3a1a67db0f1fa6a5c302bbf2ba69df3f0063828e05c8406f5164736f6c63430008040033",
  "devdoc": {
    "kind": "dev",
    "methods": {},
    "version": 1
  },
  "userdoc": {
    "kind": "user",
    "methods": {},
    "version": 1
  },
  "storageLayout": {
    "storage": [
      {
        "astId": 119,
        "contract": "contracts/funds/AFXReserve.sol:AFXReserve",
        "label": "_initialized",
        "offset": 0,
        "slot": "0",
        "type": "t_uint8"
      },
      {
        "astId": 122,
        "contract": "contracts/funds/AFXReserve.sol:AFXReserve",
        "label": "_initializing",
        "offset": 1,
        "slot": "0",
        "type": "t_bool"
      },
      {
        "astId": 9590,
        "contract": "contracts/funds/AFXReserve.sol:AFXReserve",
        "label": "afx",
        "offset": 2,
        "slot": "0",
        "type": "t_contract(IERC20)1000"
      },
      {
        "astId": 9592,
        "contract": "contracts/funds/AFXReserve.sol:AFXReserve",
        "label": "rewarder",
        "offset": 0,
        "slot": "1",
        "type": "t_address"
      },
      {
        "astId": 9594,
        "contract": "contracts/funds/AFXReserve.sol:AFXReserve",
        "label": "pool",
        "offset": 0,
        "slot": "2",
        "type": "t_address"
      }
    ],
    "types": {
      "t_address": {
        "encoding": "inplace",
        "label": "address",
        "numberOfBytes": "20"
      },
      "t_bool": {
        "encoding": "inplace",
        "label": "bool",
        "numberOfBytes": "1"
      },
      "t_contract(IERC20)1000": {
        "encoding": "inplace",
        "label": "contract IERC20",
        "numberOfBytes": "20"
      },
      "t_uint8": {
        "encoding": "inplace",
        "label": "uint8",
        "numberOfBytes": "1"
      }
    }
  }
}