{
  "address": "0xF4f2810eD6D877EF92049626109029A7513c5D6e",
  "abi": [
    {
      "inputs": [
        {
          "internalType": "address",
          "name": "pairAddress",
          "type": "address"
        }
      ],
      "stateMutability": "nonpayable",
      "type": "constructor"
    },
    {
      "anonymous": false,
      "inputs": [
        {
          "indexed": true,
          "internalType": "address",
          "name": "previousOwner",
          "type": "address"
        },
        {
          "indexed": true,
          "internalType": "address",
          "name": "newOwner",
          "type": "address"
        }
      ],
      "name": "OwnershipTransferred",
      "type": "event"
    },
    {
      "anonymous": false,
      "inputs": [
        {
          "indexed": false,
          "internalType": "uint256",
          "name": "_period",
          "type": "uint256"
        }
      ],
      "name": "PeriodUpdated",
      "type": "event"
    },
    {
      "inputs": [],
      "name": "PERIOD",
      "outputs": [
        {
          "internalType": "uint256",
          "name": "",
          "type": "uint256"
        }
      ],
      "stateMutability": "view",
      "type": "function"
    },
    {
      "inputs": [],
      "name": "blockTimestampLast",
      "outputs": [
        {
          "internalType": "uint32",
          "name": "",
          "type": "uint32"
        }
      ],
      "stateMutability": "view",
      "type": "function"
    },
    {
      "inputs": [],
      "name": "owner",
      "outputs": [
        {
          "internalType": "address",
          "name": "",
          "type": "address"
        }
      ],
      "stateMutability": "view",
      "type": "function"
    },
    {
      "inputs": [],
      "name": "pair",
      "outputs": [
        {
          "internalType": "contract IUniswapV2Pair",
          "name": "",
          "type": "address"
        }
      ],
      "stateMutability": "view",
      "type": "function"
    },
    {
      "inputs": [],
      "name": "price0Average",
      "outputs": [
        {
          "internalType": "uint224",
          "name": "_x",
          "type": "uint224"
        }
      ],
      "stateMutability": "view",
      "type": "function"
    },
    {
      "inputs": [],
      "name": "price0CumulativeLast",
      "outputs": [
        {
          "internalType": "uint256",
          "name": "",
          "type": "uint256"
        }
      ],
      "stateMutability": "view",
      "type": "function"
    },
    {
      "inputs": [],
      "name": "price1Average",
      "outputs": [
        {
          "internalType": "uint224",
          "name": "_x",
          "type": "uint224"
        }
      ],
      "stateMutability": "view",
      "type": "function"
    },
    {
      "inputs": [],
      "name": "price1CumulativeLast",
      "outputs": [
        {
          "internalType": "uint256",
          "name": "",
          "type": "uint256"
        }
      ],
      "stateMutability": "view",
      "type": "function"
    },
    {
      "inputs": [],
      "name": "renounceOwnership",
      "outputs": [],
      "stateMutability": "nonpayable",
      "type": "function"
    },
    {
      "inputs": [
        {
          "internalType": "uint256",
          "name": "_period",
          "type": "uint256"
        }
      ],
      "name": "setPeriod",
      "outputs": [],
      "stateMutability": "nonpayable",
      "type": "function"
    },
    {
      "inputs": [
        {
          "internalType": "address",
          "name": "token",
          "type": "address"
        },
        {
          "internalType": "uint256",
          "name": "pricePrecision",
          "type": "uint256"
        }
      ],
      "name": "spot",
      "outputs": [
        {
          "internalType": "uint256",
          "name": "amountOut",
          "type": "uint256"
        }
      ],
      "stateMutability": "view",
      "type": "function"
    },
    {
      "inputs": [],
      "name": "token0",
      "outputs": [
        {
          "internalType": "address",
          "name": "",
          "type": "address"
        }
      ],
      "stateMutability": "view",
      "type": "function"
    },
    {
      "inputs": [],
      "name": "token1",
      "outputs": [
        {
          "internalType": "address",
          "name": "",
          "type": "address"
        }
      ],
      "stateMutability": "view",
      "type": "function"
    },
    {
      "inputs": [
        {
          "internalType": "address",
          "name": "newOwner",
          "type": "address"
        }
      ],
      "name": "transferOwnership",
      "outputs": [],
      "stateMutability": "nonpayable",
      "type": "function"
    },
    {
      "inputs": [
        {
          "internalType": "address",
          "name": "token",
          "type": "address"
        },
        {
          "internalType": "uint256",
          "name": "pricePrecision",
          "type": "uint256"
        }
      ],
      "name": "twap",
      "outputs": [
        {
          "internalType": "uint256",
          "name": "amountOut",
          "type": "uint256"
        }
      ],
      "stateMutability": "view",
      "type": "function"
    },
    {
      "inputs": [],
      "name": "update",
      "outputs": [],
      "stateMutability": "nonpayable",
      "type": "function"
    }
  ],
  "transactionHash": "0x567d186a57aa1953603498eb11b9b79888fe3d96def867da5f8c257046998c76",
  "args": [
    "0x504AE85C806AaE871c4793Ee462C8A1FeeB5A18d"
  ],
  "numDeployments": 1,
  "solcInputHash": "131d9b2a84d6bd2fe25b6ae0a79fc8a7",
  "bytecode": "0x60e0604052610e106001553480156200001757600080fd5b506040516200177c3803806200177c8339810160408190526200003a91620003ff565b620000453362000392565b6000819050806001600160a01b03166080816001600160a01b031660601b81525050806001600160a01b0316630dfe16816040518163ffffffff1660e01b815260040160206040518083038186803b158015620000a157600080fd5b505afa158015620000b6573d6000803e3d6000fd5b505050506040513d601f19601f82011682018060405250810190620000dc9190620003ff565b6001600160a01b031660a0816001600160a01b031660601b81525050806001600160a01b031663d21220a76040518163ffffffff1660e01b815260040160206040518083038186803b1580156200013257600080fd5b505afa15801562000147573d6000803e3d6000fd5b505050506040513d601f19601f820116820180604052508101906200016d9190620003ff565b6001600160a01b031660c0816001600160a01b031660601b81525050806001600160a01b0316635909c0d56040518163ffffffff1660e01b815260040160206040518083038186803b158015620001c357600080fd5b505afa158015620001d8573d6000803e3d6000fd5b505050506040513d601f19601f82011682018060405250810190620001fe919062000483565b600281905550806001600160a01b0316635a3d54936040518163ffffffff1660e01b815260040160206040518083038186803b1580156200023e57600080fd5b505afa15801562000253573d6000803e3d6000fd5b505050506040513d601f19601f8201168201806040525081019062000279919062000483565b600381905550600080826001600160a01b0316630902f1ac6040518163ffffffff1660e01b815260040160606040518083038186803b158015620002bc57600080fd5b505afa158015620002d1573d6000803e3d6000fd5b505050506040513d601f19601f82011682018060405250810190620002f791906200042f565b6004805463ffffffff191663ffffffff9290921691909117905590925090506001600160701b038216158015906200033757506001600160701b03811615155b620003885760405162461bcd60e51b815260206004820152601760248201527f506169724f7261636c653a204e4f5f5245534552564553000000000000000000604482015260640160405180910390fd5b505050506200049c565b600080546001600160a01b038381166001600160a01b0319831681178455604051919092169283917f8be0079c531659141344cd1fd0a4f28419497f9722a3daafe3b4186f6b6457e09190a35050565b80516001600160701b0381168114620003fa57600080fd5b919050565b60006020828403121562000411578081fd5b81516001600160a01b038116811462000428578182fd5b9392505050565b60008060006060848603121562000444578182fd5b6200044f84620003e2565b92506200045f60208501620003e2565b9150604084015163ffffffff8116811462000478578182fd5b809150509250925092565b60006020828403121562000495578081fd5b5051919050565b60805160601c60a05160601c60c05160601c61128b620004f16000396000818161025d015261088901526000818161010a0152610811015260008181610208015281816103a40152610960015261128b6000f3fe608060405234801561001057600080fd5b50600436106101005760003560e01c80638da5cb5b11610097578063b4d1d79511610066578063b4d1d7951461022a578063c5700a0214610233578063d21220a714610258578063f2fde38b1461027f57600080fd5b80638da5cb5b146101d7578063a2e62045146101e8578063a6bb4539146101f0578063a8aa1b311461020357600080fd5b80635a3d5493116100d35780635a3d5493146101885780635e6aaf2c146101915780636808a128146101bc578063715018a6146101cf57600080fd5b80630dfe1681146101055780630f3a9f6514610149578063153ffc771461015e5780635909c0d51461017f575b600080fd5b61012c7f000000000000000000000000000000000000000000000000000000000000000081565b6040516001600160a01b0390911681526020015b60405180910390f35b61015c610157366004611008565b610292565b005b61017161016c366004610f8f565b61039f565b604051908152602001610140565b61017160025481565b61017160035481565b6006546101a4906001600160e01b031681565b6040516001600160e01b039091168152602001610140565b6101716101ca366004610f8f565b61077c565b61015c610942565b6000546001600160a01b031661012c565b61015c610956565b6005546101a4906001600160e01b031681565b61012c7f000000000000000000000000000000000000000000000000000000000000000081565b61017160015481565b6004546102439063ffffffff1681565b60405163ffffffff9091168152602001610140565b61012c7f000000000000000000000000000000000000000000000000000000000000000081565b61015c61028d366004610f50565b610ac6565b61029a610b3f565b6202a3008111156103025760405162461bcd60e51b815260206004820152602760248201527f506169724f7261636c653a3a736574506572696f643a203e204d4158494d554d60448201526617d411549253d160ca1b60648201526084015b60405180910390fd5b6102588110156103645760405162461bcd60e51b815260206004820152602760248201527f506169724f7261636c653a3a736574506572696f643a203c204d494e494d554d60448201526617d411549253d160ca1b60648201526084016102f9565b60018190556040518181527f989f99d0a575dfaf67701aef35b8654442a4705a4bce243d8f81e1bb2bc4a63f9060200160405180910390a150565b6000807f000000000000000000000000000000000000000000000000000000000000000090506000816001600160a01b0316630dfe16816040518163ffffffff1660e01b815260040160206040518083038186803b15801561040057600080fd5b505afa158015610414573d6000803e3d6000fd5b505050506040513d601f19601f820116820180604052508101906104389190610f73565b90506000826001600160a01b031663d21220a76040518163ffffffff1660e01b815260040160206040518083038186803b15801561047557600080fd5b505afa158015610489573d6000803e3d6000fd5b505050506040513d601f19601f820116820180604052508101906104ad9190610f73565b9050856001600160a01b0316826001600160a01b031614806104e05750856001600160a01b0316816001600160a01b0316145b61051b5760405162461bcd60e51b815260206004820152600c60248201526b24b73b30b634b2103830b4b960a11b60448201526064016102f9565b600080846001600160a01b0316630902f1ac6040518163ffffffff1660e01b815260040160606040518083038186803b15801561055757600080fd5b505afa15801561056b573d6000803e3d6000fd5b505050506040513d601f19601f8201168201806040525081019061058f9190610fba565b506001600160701b031691506001600160701b031691506000821180156105b65750600081115b6105f05760405162461bcd60e51b815260206004820152600b60248201526a4e6f20726573657276657360a81b60448201526064016102f9565b6000846001600160a01b031663313ce5676040518163ffffffff1660e01b815260040160206040518083038186803b15801561062b57600080fd5b505afa15801561063f573d6000803e3d6000fd5b505050506040513d601f19601f820116820180604052508101906106639190611038565b61066e9060126111dd565b90506000846001600160a01b031663313ce5676040518163ffffffff1660e01b815260040160206040518083038186803b1580156106ab57600080fd5b505afa1580156106bf573d6000803e3d6000fd5b505050506040513d601f19601f820116820180604052508101906106e39190611038565b6106ee9060126111dd565b90506000866001600160a01b03168b6001600160a01b0316141561073e57848a61071984600a6110ee565b6107239087611199565b61072d9190611199565b6107379190611097565b905061076c565b838a61074b85600a6110ee565b6107559088611199565b61075f9190611199565b6107699190611097565b90505b9750505050505050505b92915050565b600454600090819063ffffffff16610792610b99565b61079c91906111b8565b905061a8c06001546107ae9190611059565b8163ffffffff16111561080f5760405162461bcd60e51b815260206004820152602360248201527f506169724f7261636c653a3a747761703a204f7261636c6520776173207374616044820152621b195960ea1b60648201526084016102f9565b7f00000000000000000000000000000000000000000000000000000000000000006001600160a01b0316846001600160a01b031614156108875760408051602081019091526005546001600160e01b03168152610877906108709085610baf565b5160701c90565b6001600160901b0316915061093b565b7f00000000000000000000000000000000000000000000000000000000000000006001600160a01b0316846001600160a01b0316146109085760405162461bcd60e51b815260206004820152601960248201527f506169724f7261636c653a20494e56414c49445f544f4b454e0000000000000060448201526064016102f9565b60408051602081019091526006546001600160e01b0316815261092f906108709085610baf565b6001600160901b031691505b5092915050565b61094a610b3f565b6109546000610c59565b565b60008060006109847f0000000000000000000000000000000000000000000000000000000000000000610ca9565b600454600154939650919450925063ffffffff90811683039190821610156109ee5760405162461bcd60e51b815260206004820152601e60248201527f506169724f7261636c653a20504552494f445f4e4f545f454c4150534544000060448201526064016102f9565b60405180602001604052808263ffffffff16600254870381610a2057634e487b7160e01b600052601260045260246000fd5b046001600160e01b039081169091529051600580546001600160e01b031916919092161790556040805160208101909152600354819063ffffffff841690860381610a7b57634e487b7160e01b600052601260045260246000fd5b046001600160e01b039081169091529051600680546001600160e01b03191691909216179055506002929092556003556004805463ffffffff191663ffffffff909216919091179055565b610ace610b3f565b6001600160a01b038116610b335760405162461bcd60e51b815260206004820152602660248201527f4f776e61626c653a206e6577206f776e657220697320746865207a65726f206160448201526564647265737360d01b60648201526084016102f9565b610b3c81610c59565b50565b6000546001600160a01b031633146109545760405162461bcd60e51b815260206004820181905260248201527f4f776e61626c653a2063616c6c6572206973206e6f7420746865206f776e657260448201526064016102f9565b6000610baa64010000000042611200565b905090565b6040805160208101909152600081526000821580610bec575083516001600160e01b031683610bde8183611199565b9250610bea9083611097565b145b610c445760405162461bcd60e51b815260206004820152602360248201527f4669786564506f696e743a204d554c5449504c49434154494f4e5f4f564552466044820152624c4f5760e81b60648201526084016102f9565b60408051602081019091529081529392505050565b600080546001600160a01b038381166001600160a01b0319831681178455604051919092169283917f8be0079c531659141344cd1fd0a4f28419497f9722a3daafe3b4186f6b6457e09190a35050565b6000806000610cb6610b99565b90506000849050806001600160a01b0316635909c0d56040518163ffffffff1660e01b815260040160206040518083038186803b158015610cf657600080fd5b505afa158015610d0a573d6000803e3d6000fd5b505050506040513d601f19601f82011682018060405250810190610d2e9190611020565b9350806001600160a01b0316635a3d54936040518163ffffffff1660e01b815260040160206040518083038186803b158015610d6957600080fd5b505afa158015610d7d573d6000803e3d6000fd5b505050506040513d601f19601f82011682018060405250810190610da19190611020565b92506000806000836001600160a01b0316630902f1ac6040518163ffffffff1660e01b815260040160606040518083038186803b158015610de157600080fd5b505afa158015610df5573d6000803e3d6000fd5b505050506040513d601f19601f82011682018060405250810190610e199190610fba565b9250925092508463ffffffff168163ffffffff1614610e795780850363ffffffff8116610e468486610e84565b516001600160e01b031602979097019663ffffffff8116610e678585610e84565b516001600160e01b0316029690960195505b505050509193909250565b6040805160208101909152600081526000826001600160701b031611610eec5760405162461bcd60e51b815260206004820152601760248201527f4669786564506f696e743a204449565f42595f5a45524f00000000000000000060448201526064016102f9565b604080516020810190915280610f226001600160701b0385166dffffffffffffffffffffffffffff60701b607088901b16611071565b6001600160e01b031690529392505050565b80516001600160701b0381168114610f4b57600080fd5b919050565b600060208284031215610f61578081fd5b8135610f6c81611240565b9392505050565b600060208284031215610f84578081fd5b8151610f6c81611240565b60008060408385031215610fa1578081fd5b8235610fac81611240565b946020939093013593505050565b600080600060608486031215610fce578081fd5b610fd784610f34565b9250610fe560208501610f34565b9150604084015163ffffffff81168114610ffd578182fd5b809150509250925092565b600060208284031215611019578081fd5b5035919050565b600060208284031215611031578081fd5b5051919050565b600060208284031215611049578081fd5b815160ff81168114610f6c578182fd5b6000821982111561106c5761106c611214565b500190565b60006001600160e01b038381168061108b5761108b61122a565b92169190910492915050565b6000826110a6576110a661122a565b500490565b600181815b808511156110e65781600019048211156110cc576110cc611214565b808516156110d957918102915b93841c93908002906110b0565b509250929050565b6000610f6c60ff84168360008261110757506001610776565b8161111457506000610776565b816001811461112a576002811461113457611150565b6001915050610776565b60ff84111561114557611145611214565b50506001821b610776565b5060208310610133831016604e8410600b8410161715611173575081810a610776565b61117d83836110ab565b806000190482111561119157611191611214565b029392505050565b60008160001904831182151516156111b3576111b3611214565b500290565b600063ffffffff838116908316818110156111d5576111d5611214565b039392505050565b600060ff821660ff8416808210156111f7576111f7611214565b90039392505050565b60008261120f5761120f61122a565b500690565b634e487b7160e01b600052601160045260246000fd5b634e487b7160e01b600052601260045260246000fd5b6001600160a01b0381168114610b3c57600080fdfea26469706673582212205092f23bb1a574a4185308e70387f2eecdfb1c6bf081c459dae8b646a6fc593f64736f6c63430008040033",
  "devdoc": {
    "kind": "dev",
    "methods": {
      "owner()": {
        "details": "Returns the address of the current owner."
      },
      "renounceOwnership()": {
        "details": "Leaves the contract without owner. It will not be possible to call `onlyOwner` functions anymore. Can only be called by the current owner. NOTE: Renouncing ownership will leave the contract without an owner, thereby removing any functionality that is only available to the owner."
      },
      "transferOwnership(address)": {
        "details": "Transfers ownership of the contract to a new account (`newOwner`). Can only be called by the current owner."
      }
    },
    "version": 1
  },
  "userdoc": {
    "kind": "user",
    "methods": {},
    "version": 1
  },
  "storageLayout": {
    "storage": [
      {
        "astId": 7,
        "contract": "contracts/oracles/UniswapPairOracle.sol:UniswapPairOracle",
        "label": "_owner",
        "offset": 0,
        "slot": "0",
        "type": "t_address"
      },
      {
        "astId": 11330,
        "contract": "contracts/oracles/UniswapPairOracle.sol:UniswapPairOracle",
        "label": "PERIOD",
        "offset": 0,
        "slot": "1",
        "type": "t_uint256"
      },
      {
        "astId": 11354,
        "contract": "contracts/oracles/UniswapPairOracle.sol:UniswapPairOracle",
        "label": "price0CumulativeLast",
        "offset": 0,
        "slot": "2",
        "type": "t_uint256"
      },
      {
        "astId": 11356,
        "contract": "contracts/oracles/UniswapPairOracle.sol:UniswapPairOracle",
        "label": "price1CumulativeLast",
        "offset": 0,
        "slot": "3",
        "type": "t_uint256"
      },
      {
        "astId": 11358,
        "contract": "contracts/oracles/UniswapPairOracle.sol:UniswapPairOracle",
        "label": "blockTimestampLast",
        "offset": 0,
        "slot": "4",
        "type": "t_uint32"
      },
      {
        "astId": 11361,
        "contract": "contracts/oracles/UniswapPairOracle.sol:UniswapPairOracle",
        "label": "price0Average",
        "offset": 0,
        "slot": "5",
        "type": "t_struct(uq112x112)10240_storage"
      },
      {
        "astId": 11364,
        "contract": "contracts/oracles/UniswapPairOracle.sol:UniswapPairOracle",
        "label": "price1Average",
        "offset": 0,
        "slot": "6",
        "type": "t_struct(uq112x112)10240_storage"
      }
    ],
    "types": {
      "t_address": {
        "encoding": "inplace",
        "label": "address",
        "numberOfBytes": "20"
      },
      "t_struct(uq112x112)10240_storage": {
        "encoding": "inplace",
        "label": "struct FixedPoint.uq112x112",
        "members": [
          {
            "astId": 10239,
            "contract": "contracts/oracles/UniswapPairOracle.sol:UniswapPairOracle",
            "label": "_x",
            "offset": 0,
            "slot": "0",
            "type": "t_uint224"
          }
        ],
        "numberOfBytes": "32"
      },
      "t_uint224": {
        "encoding": "inplace",
        "label": "uint224",
        "numberOfBytes": "28"
      },
      "t_uint256": {
        "encoding": "inplace",
        "label": "uint256",
        "numberOfBytes": "32"
      },
      "t_uint32": {
        "encoding": "inplace",
        "label": "uint32",
        "numberOfBytes": "4"
      }
    }
  }
}