{
  "address": "0x5D4eC8c5912c5934b2B2FC5CF95115DD23259bf1",
  "abi": [
    {
      "inputs": [
        {
          "internalType": "address",
          "name": "_yToken",
          "type": "address"
        },
        {
          "internalType": "address",
          "name": "_lp",
          "type": "address"
        },
        {
          "internalType": "address",
          "name": "_treasury",
          "type": "address"
        },
        {
          "internalType": "address",
          "name": "_swapRouter",
          "type": "address"
        },
        {
          "internalType": "address[]",
          "name": "_swapPaths",
          "type": "address[]"
        }
      ],
      "stateMutability": "nonpayable",
      "type": "constructor"
    },
    {
      "anonymous": false,
      "inputs": [
        {
          "indexed": false,
          "internalType": "uint256",
          "name": "_lpBalance",
          "type": "uint256"
        },
        {
          "indexed": false,
          "internalType": "uint256",
          "name": "_wethAmt",
          "type": "uint256"
        },
        {
          "indexed": false,
          "internalType": "uint256",
          "name": "_yTokenAmt",
          "type": "uint256"
        }
      ],
      "name": "LiquidityAdded",
      "type": "event"
    },
    {
      "anonymous": false,
      "inputs": [
        {
          "indexed": true,
          "internalType": "address",
          "name": "previousOwner",
          "type": "address"
        },
        {
          "indexed": true,
          "internalType": "address",
          "name": "newOwner",
          "type": "address"
        }
      ],
      "name": "OwnershipTransferred",
      "type": "event"
    },
    {
      "anonymous": false,
      "inputs": [
        {
          "indexed": false,
          "internalType": "uint256",
          "name": "_newSlippage",
          "type": "uint256"
        }
      ],
      "name": "SlippageChanged",
      "type": "event"
    },
    {
      "inputs": [
        {
          "internalType": "uint256",
          "name": "_newSlippage",
          "type": "uint256"
        }
      ],
      "name": "changeSlippage",
      "outputs": [],
      "stateMutability": "nonpayable",
      "type": "function"
    },
    {
      "inputs": [],
      "name": "cleanDust",
      "outputs": [],
      "stateMutability": "nonpayable",
      "type": "function"
    },
    {
      "inputs": [
        {
          "internalType": "uint256",
          "name": "_wethIn",
          "type": "uint256"
        },
        {
          "internalType": "uint256",
          "name": "_yTokenOut",
          "type": "uint256"
        }
      ],
      "name": "execute",
      "outputs": [],
      "stateMutability": "nonpayable",
      "type": "function"
    },
    {
      "inputs": [],
      "name": "lp",
      "outputs": [
        {
          "internalType": "contract IERC20",
          "name": "",
          "type": "address"
        }
      ],
      "stateMutability": "view",
      "type": "function"
    },
    {
      "inputs": [],
      "name": "lpBalance",
      "outputs": [
        {
          "internalType": "uint256",
          "name": "",
          "type": "uint256"
        }
      ],
      "stateMutability": "view",
      "type": "function"
    },
    {
      "inputs": [],
      "name": "owner",
      "outputs": [
        {
          "internalType": "address",
          "name": "",
          "type": "address"
        }
      ],
      "stateMutability": "view",
      "type": "function"
    },
    {
      "inputs": [],
      "name": "renounceOwnership",
      "outputs": [],
      "stateMutability": "nonpayable",
      "type": "function"
    },
    {
      "inputs": [
        {
          "internalType": "uint256",
          "name": "",
          "type": "uint256"
        }
      ],
      "name": "swapPaths",
      "outputs": [
        {
          "internalType": "address",
          "name": "",
          "type": "address"
        }
      ],
      "stateMutability": "view",
      "type": "function"
    },
    {
      "inputs": [],
      "name": "swapRouter",
      "outputs": [
        {
          "internalType": "contract IUniswapV2Router02",
          "name": "",
          "type": "address"
        }
      ],
      "stateMutability": "view",
      "type": "function"
    },
    {
      "inputs": [],
      "name": "swapSlippage",
      "outputs": [
        {
          "internalType": "uint256",
          "name": "",
          "type": "uint256"
        }
      ],
      "stateMutability": "view",
      "type": "function"
    },
    {
      "inputs": [
        {
          "internalType": "address",
          "name": "newOwner",
          "type": "address"
        }
      ],
      "name": "transferOwnership",
      "outputs": [],
      "stateMutability": "nonpayable",
      "type": "function"
    },
    {
      "inputs": [],
      "name": "treasury",
      "outputs": [
        {
          "internalType": "address",
          "name": "",
          "type": "address"
        }
      ],
      "stateMutability": "view",
      "type": "function"
    },
    {
      "inputs": [],
      "name": "yToken",
      "outputs": [
        {
          "internalType": "contract IERC20",
          "name": "",
          "type": "address"
        }
      ],
      "stateMutability": "view",
      "type": "function"
    }
  ],
  "transactionHash": "0x322bd44c45d9dc9acb15b5b1a63383f1321730fc26c52515dbc84858ad8ffbb6",
  "args": [
    "0xf43c355Da992c5dA1E19a37B4FeC09215D20bEC2",
    "0x504AE85C806AaE871c4793Ee462C8A1FeeB5A18d",
    "0x13Ffdadb274Ed0dA9A04AF8E6D374aE63Ec7fa18",
    "0x7a250d5630B4cF539739dF2C5dAcb4c659F2488D",
    [
      "0xB4FBF271143F4FBf7B91A5ded31805e42b2208d6",
      "0xf43c355Da992c5dA1E19a37B4FeC09215D20bEC2"
    ]
  ],
  "numDeployments": 1,
  "solcInputHash": "131d9b2a84d6bd2fe25b6ae0a79fc8a7",
  "bytecode": "0x61010060405262030d406002553480156200001957600080fd5b50604051620015c6380380620015c68339810160408190526200003c9162000180565b620000473362000092565b6001600160601b0319606086811b821660805285811b821660a05284811b821660e05283901b1660c052805162000086906001906020840190620000e2565b505050505050620002b8565b600080546001600160a01b038381166001600160a01b0319831681178455604051919092169283917f8be0079c531659141344cd1fd0a4f28419497f9722a3daafe3b4186f6b6457e09190a35050565b8280548282559060005260206000209081019282156200013a579160200282015b828111156200013a57825182546001600160a01b0319166001600160a01b0390911617825560209092019160019091019062000103565b50620001489291506200014c565b5090565b5b808211156200014857600081556001016200014d565b80516001600160a01b03811681146200017b57600080fd5b919050565b600080600080600060a0868803121562000198578081fd5b620001a38662000163565b94506020620001b481880162000163565b9450620001c46040880162000163565b9350620001d46060880162000163565b60808801519093506001600160401b0380821115620001f1578384fd5b818901915089601f83011262000205578384fd5b8151818111156200021a576200021a620002a2565b8060051b604051601f19603f83011681018181108582111715620002425762000242620002a2565b604052828152858101935084860182860187018e101562000261578788fd5b8795505b838610156200028e57620002798162000163565b85526001959095019493860193860162000265565b508096505050505050509295509295909350565b634e487b7160e01b600052604160045260246000fd5b60805160601c60a05160601c60c05160601c60e05160601c6112676200035f60003960008181610180015281816102db015281816103c9015281816108ab0152610aa60152600081816101e601528181610794015281816107d3015281816109ce01528181610a0d0152610adb01526000818160fd015261023301526000818161013c0152818161030501528181610389015281816109ac0152610a4801526112676000f3fe608060405234801561001057600080fd5b50600436106100cf5760003560e01c806361d027b31161008c578063932435091161006657806393243509146101bb578063bec872b0146101ce578063c31c9c07146101e1578063f2fde38b1461020857600080fd5b806361d027b31461017b578063715018a6146101a25780638da5cb5b146101aa57600080fd5b80631aedeabe146100d45780632059f615146100f0578063313c06a0146100f857806349bfcca1146101375780634d9b35091461015e5780635601eaea14610168575b600080fd5b6100dd60025481565b6040519081526020015b60405180910390f35b6100dd61021b565b61011f7f000000000000000000000000000000000000000000000000000000000000000081565b6040516001600160a01b0390911681526020016100e7565b61011f7f000000000000000000000000000000000000000000000000000000000000000081565b6101666102ba565b005b61016661017636600461105b565b610476565b61011f7f000000000000000000000000000000000000000000000000000000000000000081565b61016661050e565b6000546001600160a01b031661011f565b61011f6101c936600461102b565b610520565b6101666101dc36600461102b565b61054a565b61011f7f000000000000000000000000000000000000000000000000000000000000000081565b610166610216366004610f1d565b6105ff565b6040516370a0823160e01b81523060048201526000907f00000000000000000000000000000000000000000000000000000000000000006001600160a01b0316906370a082319060240160206040518083038186803b15801561027d57600080fd5b505afa158015610291573d6000803e3d6000fd5b505050506040513d601f19601f820116820180604052508101906102b59190611043565b905090565b6102c2610678565b6040516370a0823160e01b81523060048201526103b0907f0000000000000000000000000000000000000000000000000000000000000000906001600160a01b037f000000000000000000000000000000000000000000000000000000000000000016906370a082319060240160206040518083038186803b15801561034757600080fd5b505afa15801561035b573d6000803e3d6000fd5b505050506040513d601f19601f8201168201806040525081019061037f9190611043565b6001600160a01b037f00000000000000000000000000000000000000000000000000000000000000001691906106d2565b6040516370a0823160e01b8152306004820152610474907f00000000000000000000000000000000000000000000000000000000000000009073b4fbf271143f4fbf7b91a5ded31805e42b2208d6906370a082319060240160206040518083038186803b15801561042057600080fd5b505afa158015610434573d6000803e3d6000fd5b505050506040513d601f19601f820116820180604052508101906104589190611043565b73b4fbf271143f4fbf7b91a5ded31805e42b2208d691906106d2565b565b61049673b4fbf271143f4fbf7b91a5ded31805e42b2208d633308561073a565b60006104a3600284611183565b905060006104b182856111c2565b90506000620f424060028054620f42406104cb91906111c2565b6104d590876111a3565b6104df9190611183565b6104e99190611183565b905060006104f78483610778565b905061050681846002546108a9565b505050505050565b610516610678565b6104746000610bad565b6001818154811061053057600080fd5b6000918252602090912001546001600160a01b0316905081565b610552610678565b620f42408111156105c45760405162461bcd60e51b815260206004820152603160248201527f537761705374726174656779504f4c3a3a6368616e6765536c6970706167653a60448201527020496e76616c696420736c69707061676560781b60648201526084015b60405180910390fd5b60028190556040518181527febfb7b9839a38a6c5d27e43aeb27cf7c47a40bde9262cabba968aecd6336ea109060200160405180910390a150565b610607610678565b6001600160a01b03811661066c5760405162461bcd60e51b815260206004820152602660248201527f4f776e61626c653a206e6577206f776e657220697320746865207a65726f206160448201526564647265737360d01b60648201526084016105bb565b61067581610bad565b50565b6000546001600160a01b031633146104745760405162461bcd60e51b815260206004820181905260248201527f4f776e61626c653a2063616c6c6572206973206e6f7420746865206f776e657260448201526064016105bb565b6040516001600160a01b03831660248201526044810182905261073590849063a9059cbb60e01b906064015b60408051601f198184030181529190526020810180516001600160e01b03166001600160e01b031990931692909217909152610bfd565b505050565b6040516001600160a01b03808516602483015283166044820152606481018290526107729085906323b872dd60e01b906084016106fe565b50505050565b60006107b973b4fbf271143f4fbf7b91a5ded31805e42b2208d67f000000000000000000000000000000000000000000000000000000000000000085610ccf565b6040516338ed173960e01b81526000906001600160a01b037f000000000000000000000000000000000000000000000000000000000000000016906338ed1739906108119087908790600190309042906004016110f8565b600060405180830381600087803b15801561082b57600080fd5b505af115801561083f573d6000803e3d6000fd5b505050506040513d6000823e601f3d908101601f191682016040526108679190810190610f4b565b60018054919250829161087a91906111c2565b8151811061089857634e487b7160e01b600052603260045260246000fd5b602002602001015191505092915050565b7f00000000000000000000000000000000000000000000000000000000000000006001600160a01b031661093e5760405162461bcd60e51b815260206004820152603660248201527f537761705374726174656779504f4c3a3a6164644c69717569646974793a496e60448201527576616c6964207472656173757279206164647265737360501b60648201526084016105bb565b60008311801561094e5750600082115b15610735576000620f424061096383826111c2565b61096d90866111a3565b6109779190611183565b90506000620f424061098984826111c2565b61099390866111a3565b61099d9190611183565b90506109f36001600160a01b037f0000000000000000000000000000000000000000000000000000000000000000167f000000000000000000000000000000000000000000000000000000000000000087610ccf565b610a3273b4fbf271143f4fbf7b91a5ded31805e42b2208d67f000000000000000000000000000000000000000000000000000000000000000086610ccf565b60405162e8e33760e81b81526001600160a01b037f00000000000000000000000000000000000000000000000000000000000000008116600483015273b4fbf271143f4fbf7b91a5ded31805e42b2208d6602483015260448201879052606482018690526084820184905260a482018390527f0000000000000000000000000000000000000000000000000000000000000000811660c48301524260e4830152600091829182917f00000000000000000000000000000000000000000000000000000000000000009091169063e8e337009061010401606060405180830381600087803b158015610b2257600080fd5b505af1158015610b36573d6000803e3d6000fd5b505050506040513d601f19601f82011682018060405250810190610b5a919061107c565b604080518281526020810185905290810183905292955090935091507fd7f28048575eead8851d024ead087913957dfb4fd1a02b4d1573f5352a5a2be39060600160405180910390a15050505050505050565b600080546001600160a01b038381166001600160a01b0319831681178455604051919092169283917f8be0079c531659141344cd1fd0a4f28419497f9722a3daafe3b4186f6b6457e09190a35050565b6000610c52826040518060400160405280602081526020017f5361666545524332303a206c6f772d6c6576656c2063616c6c206661696c6564815250856001600160a01b0316610d909092919063ffffffff16565b8051909150156107355780806020019051810190610c70919061100b565b6107355760405162461bcd60e51b815260206004820152602a60248201527f5361666545524332303a204552433230206f7065726174696f6e20646964206e6044820152691bdd081cdd58d8d9595960b21b60648201526084016105bb565b604051636eb1769f60e11b81523060048201526001600160a01b038381166024830152600091839186169063dd62ed3e9060440160206040518083038186803b158015610d1b57600080fd5b505afa158015610d2f573d6000803e3d6000fd5b505050506040513d601f19601f82011682018060405250810190610d539190611043565b610d5d919061116b565b6040516001600160a01b03851660248201526044810182905290915061077290859063095ea7b360e01b906064016106fe565b6060610d9f8484600085610da7565b949350505050565b606082471015610e085760405162461bcd60e51b815260206004820152602660248201527f416464726573733a20696e73756666696369656e742062616c616e636520666f6044820152651c8818d85b1b60d21b60648201526084016105bb565b600080866001600160a01b03168587604051610e2491906110a9565b60006040518083038185875af1925050503d8060008114610e61576040519150601f19603f3d011682016040523d82523d6000602084013e610e66565b606091505b5091509150610e7787838387610e82565b979650505050505050565b60608315610eee578251610ee7576001600160a01b0385163b610ee75760405162461bcd60e51b815260206004820152601d60248201527f416464726573733a2063616c6c20746f206e6f6e2d636f6e747261637400000060448201526064016105bb565b5081610d9f565b610d9f8383815115610f035781518083602001fd5b8060405162461bcd60e51b81526004016105bb91906110c5565b600060208284031215610f2e578081fd5b81356001600160a01b0381168114610f44578182fd5b9392505050565b60006020808385031215610f5d578182fd5b825167ffffffffffffffff80821115610f74578384fd5b818501915085601f830112610f87578384fd5b815181811115610f9957610f9961121b565b8060051b604051601f19603f83011681018181108582111715610fbe57610fbe61121b565b604052828152858101935084860182860187018a1015610fdc578788fd5b8795505b83861015610ffe578051855260019590950194938601938601610fe0565b5098975050505050505050565b60006020828403121561101c578081fd5b81518015158114610f44578182fd5b60006020828403121561103c578081fd5b5035919050565b600060208284031215611054578081fd5b5051919050565b6000806040838503121561106d578081fd5b50508035926020909101359150565b600080600060608486031215611090578081fd5b8351925060208401519150604084015190509250925092565b600082516110bb8184602087016111d9565b9190910192915050565b60208152600082518060208401526110e48160408501602087016111d9565b601f01601f19169190910160400192915050565b600060a082018783526020878185015260a0604085015281875480845260c0860191508885528285209350845b8181101561114a5784546001600160a01b031683526001948501949284019201611125565b50506001600160a01b03969096166060850152505050608001529392505050565b6000821982111561117e5761117e611205565b500190565b60008261119e57634e487b7160e01b81526012600452602481fd5b500490565b60008160001904831182151516156111bd576111bd611205565b500290565b6000828210156111d4576111d4611205565b500390565b60005b838110156111f45781810151838201526020016111dc565b838111156107725750506000910152565b634e487b7160e01b600052601160045260246000fd5b634e487b7160e01b600052604160045260246000fdfea2646970667358221220f7479c5a8346803ddbdb401e6d1613ae0f0d77f619eeda8a93640d8a1063783964736f6c63430008040033",
  "libraries": {
    "WethUtils": "0xbb2906b75067dE190bEF3E3a26e1c142df96AE1c"
  },
  "devdoc": {
    "kind": "dev",
    "methods": {
      "execute(uint256,uint256)": {
        "params": {
          "_wethIn": "Amount of WETH input",
          "_yTokenOut": "Amount of YToken output expected"
        }
      },
      "owner()": {
        "details": "Returns the address of the current owner."
      },
      "renounceOwnership()": {
        "details": "Leaves the contract without owner. It will not be possible to call `onlyOwner` functions anymore. Can only be called by the current owner. NOTE: Renouncing ownership will leave the contract without an owner, thereby removing any functionality that is only available to the owner."
      },
      "transferOwnership(address)": {
        "details": "Transfers ownership of the contract to a new account (`newOwner`). Can only be called by the current owner."
      }
    },
    "version": 1
  },
  "userdoc": {
    "kind": "user",
    "methods": {
      "execute(uint256,uint256)": {
        "notice": "Function to take input WETH to swap to YToken then add liquidity"
      }
    },
    "version": 1
  },
  "storageLayout": {
    "storage": [
      {
        "astId": 7,
        "contract": "contracts/SwapStrategyPOL.sol:SwapStrategyPOL",
        "label": "_owner",
        "offset": 0,
        "slot": "0",
        "type": "t_address"
      },
      {
        "astId": 5794,
        "contract": "contracts/SwapStrategyPOL.sol:SwapStrategyPOL",
        "label": "swapPaths",
        "offset": 0,
        "slot": "1",
        "type": "t_array(t_address)dyn_storage"
      },
      {
        "astId": 5799,
        "contract": "contracts/SwapStrategyPOL.sol:SwapStrategyPOL",
        "label": "swapSlippage",
        "offset": 0,
        "slot": "2",
        "type": "t_uint256"
      }
    ],
    "types": {
      "t_address": {
        "encoding": "inplace",
        "label": "address",
        "numberOfBytes": "20"
      },
      "t_array(t_address)dyn_storage": {
        "base": "t_address",
        "encoding": "dynamic_array",
        "label": "address[]",
        "numberOfBytes": "32"
      },
      "t_uint256": {
        "encoding": "inplace",
        "label": "uint256",
        "numberOfBytes": "32"
      }
    }
  }
}